:020000040800F2
:10000000D83A002049010008353B0008E5220008E5
:10001000313B00081D0C0008534800080000000098
:100020000000000000000000000000003541000852
:10003000210C000800000000ED3B000839420008D8
:10004000630100086301000863010008813F0008A4
:1000500063010008630100086301000863010008F0
:1000600063010008630100086301000863010008E0
:1000700063010008630100086301000863010008D0
:1000800063010008630100086301000863010008C0
:1000900063010008630100086301000863010008B0
:1000A00063010008630100086301000863010008A0
:1000B0006301000863010008630100086301000890
:1000C0006301000863010008630100086301000880
:1000D00063010008630100089D46000863010008F1
:1000E0006301000863010008630100086301000860
:1000F0006301000863010008630100086301000850
:10010000630100086301000863010008630100083F
:10011000630100086301000863010008630100082F
:10012000630100086301000863010008630100081F
:10013000DFF810D000F014FB0048004739660008D3
:10014000AFF30080D83A00200648804706480047B1
:10015000FEE7FEE7FEE7FEE7FEE7FEE7FEE7FEE777
:10016000FEE7FEE73D4200083101000840EA0103D6
:100170009B0703D009E008C9121F08C0042AFAD25D
:1001800003E011F8013B00F8013B521EF9D2704721
:10019000D2B201E000F8012B491EFBD270470022C9
:1001A000F6E710B513460A4604461946FFF7F0FF76
:1001B000204610BDCAB2401E10F8011F8A4202D06C
:1001C0000029F9D10020704710B5002200E0521C30
:1001D000835C8C5CA34201D1002BF8D1D8B2E1B290
:1001E000401A10BD30B504460020034600E05B1CF9
:1001F000934203D2E05CCD5C401BF8D030BD034697
:1002000011F8012B00F8012B002AF9D1184670478C
:100210000FB400B589B00BA800906A4603480A994C
:1002200000F000FA09B05DF814FB00006C02002039
:100230002DE9FF5F1D464FF0FF3BD5E90146914692
:100240005F464FF00008A9697F1C01988847296A1A
:10025000824688470028F6D1BAF1FF3F0CD024F43B
:10026000C064002E19DD600614D5BAF12B0F09D039
:10027000BAF12D0F0ED103E0584604B0BDE8F09F4F
:1002800044F48064A9697F1C01988847761E8246E1
:10029000002E02DDBAF1300F03D0B9F1000F26D0E5
:1002A00032E0A969761E44F400747F1C01988847E7
:1002B0008246002E05DDBAF1780F06D0BAF1580F4C
:1002C00003D0B9F1000F10D01EE0B9F1000F02D039
:1002D000B9F1100F18D1A969761E24F400747F1C9F
:1002E000019888478246102002E0082000E00A209A
:1002F000814609E008FB0908A969761E44F40074E8
:100300007F1C019888478246002E05DD49465046ED
:1003100000F079F90028EDDAE96901988847A0052D
:1003200002D46FF00100A8E7E00725D1600613D5DD
:10033000600502D5C8F1000000E0404629680A1DAA
:100340002A600968220501D5087015E0220701D549
:10035000088011E008600FE02868011D296000682E
:10036000210502D580F8008006E0210702D5A0F81B
:10037000008001E0C0F8008038467EE72DE9FE4F9E
:1003800081EA030404F0004421F0004100944FF09E
:10039000000B23F0004350EA01045ED052EA03044C
:1003A0005BD0C3F30A54C1F30A552C44A4F2F334CE
:1003B0000194A0FB0254C1F3130141F48011C3F373
:1003C000130343F4801301FB024400FB034E840A31
:1003D000970A44EA815447EA8357A4FB07680295C9
:1003E0008D0A05FB07854FEA932C04FB0C54270567
:1003F000029D4FEA065847EA1637B5EB08056EEB43
:10040000070C870E920E47EA811742EA8312A7FB78
:100410000201B6EB0B0164EB00042B0D43EA0C3335
:100420005E1844EB1C50DA465146E7FB0201C5F367
:1004300013044FEA0B3343EA14534FEA0432019C8E
:1004400043EA0603A4F10C040294009CCDE900B435
:1004500000F038F903B0BDE8F08F00200146F9E75D
:100460002DE9F04D81EA030404F0004B21F0004532
:1004700014464FF0000A23F0004150EA050220D054
:1004800054EA01021DD0C5F30A570246C5F313030F
:10049000C1F31300C1F30A5640F4801543F48013EE
:1004A000A7EB0608101BD64608F2FD3873EB0500D3
:1004B00002D308F1010801E092185B41B8F1000F86
:1004C00003DA00200146BDE8F08D00204FF48011D2
:1004D000064684460EE0171B73EB050705D3121B77
:1004E00063EB050306434CEA010C49084FEA300070
:1004F00092185B4150EA0107EDD152EA030012D095
:1005000082EA040083EA0501084305D0101BAB41D1
:1005100006D20122002306E000224FF0004302E051
:100520006FF0010253101AEB06004CEB085110EB70
:100530000A0041EB0B01BDE8F04D00F0B4B80EB578
:10054000C10F80EAE0700844CA07002140F233433B
:100550008DE80E000A460B4600F0B4F803B000BD6B
:100560000EB540F2334102910021CDE900110A4657
:100570000B4600F0A7F803B000BD20F00040C10D0D
:10058000C0F3160040F400007F2901DA0020704714
:10059000962903DCC1F19601C8407047963988401E
:1005A000704701F0004330B421F0004150EA0102ED
:1005B00006D00A0DA2F56072C1F31301002A02DC15
:1005C00030BC00207047440F44EAC104C100E01869
:1005D00030BC00EBC25000F02FB830B50B460146DE
:1005E00000202022012409E021FA02F59D4205D3D2
:1005F00003FA02F5491B04FA02F52844151EA2F17C
:100600000102F1DC30BD3A2800D2303820F020025F
:10061000412A01D3A2F13700884201D34FF0FF30C5
:1006200070470000024B9361024BD36100F0E6B8C3
:1006300031620008A10700080029A8BF7047401CCC
:10064000490008BF20F00100704710B4B0FA80FCE8
:1006500000FA0CF050EA010404BF10BC704749B125
:10066000CCF1200421FA04F411FA0CF118BF012195
:1006700021430843A3EB0C01CB1D4FEA00614FEA75
:10068000102042BF002010BC704700EBC350104444
:100690000029A4BF10BC7047401C490008BF20F0CF
:1006A000010010BC704710B5141E73F1000408DA85
:1006B000401C41F1000192185B411A4301D120F026
:1006C000010010BD2DE9F04D92469B4611B1B1FAE3
:1006D00081F202E0B0FA80F22032904600F068F831
:1006E00004460F4640EA0A0041EA0B0153465A46C7
:1006F000084313D0114653EA010019D0C8F1400253
:10070000504600F064F805460E46504659464246AB
:1007100000F04EF8084305D0012004E02046394699
:10072000BDE8F08D0020054346EAE0762C433743D0
:100730000A986305E40AA0EB08000022FD0A44EAD7
:1007400047540A3002D500200146E9E70105101997
:100750006941DDE9084500196941BDE8F04DA2E7AE
:10076000064C074D06E0E06840F0010394E80700FE
:1007700098471034AC42F6D3FFF7DEFCBC240308E4
:10078000DC240308094910B508784C1C18B1401E38
:100790000870205C10BD00210720ABBE207010BD8A
:1007A00002490878421C0A70704700007402002059
:1007B000202A04DB203A00FA02F100207047914021
:1007C000C2F1200320FA03F3194390407047202A16
:1007D00004DB203A21FA02F00021704721FA02F3EB
:1007E000D040C2F1200291400843194670470000F2
:1007F000026811441378016018467047D1600449BB
:1008000051610449116200211161114600F00AB8DA
:10081000F107000819080008C0B24FF4F05100F0C9
:1008200099B900002DE9F34F8BB04FF0000801F1AA
:100830000C000C464FF0010B46460DF1080A0190E2
:100840006269012101989047051E2DD0252D2CD0DD
:10085000216A8847C0B16269012101989047216AE5
:1008600088470028F7D1411E62690198904700E04F
:10087000761CA1690B988847216A88470028F7D120
:10088000E1690B988847DBE7A1690B988847074621
:10089000A84201D1761CD3E7E1690B9888477F1CF9
:1008A00002D1B8F1000F6FD047E1002762693D46E1
:1008B0003946019890472A2804D16269012101989C
:1008C00090470125DFF888926269012101989047DD
:1008D000A0F130010A290AD24F45E5DC07EB870178
:1008E00000EB4107303FDFD445F01005ECE7E906A7
:1008F00001D46FF000476C280AD04C2814D0682827
:1009000015D06A280DD074281CD07A281AD01DE082
:1009100062690121019890476C2802D045F00405D6
:1009200014E045F002050DE045F020050AE062699B
:10093000012101989047682802D045F0080505E09C
:1009400045F400656269012101989047C4E90157A7
:1009500065283DD019DC58287AD00CDC452837D0E2
:1009600004DC252826D0412831D131E046282FD07B
:1009700047282CD12CE05B2877D0612828D0632829
:100980007CD0642823D15AE0D1E06F2848D008DC1D
:1009900066281DD067281BD0692821D06E2816D163
:1009A00027E0702845D0732868D0752847D078286C
:1009B0000DD14DE0A1690B988847054625283FF4E5
:1009C00069AFE1690B9888476D1C3FF46AAFB4E0EA
:1009D00023466A466FF001000B99AFF300809FE059
:1009E00045F040006060A80723464FF0000236D46F
:1009F0003EE0E8077FF447AF2068011D21600068F2
:100A0000290501D506701BE7290701D5068017E7E0
:100A1000A90703D5F117C0E9006111E706600FE7E8
:100A200045F040006060A80723464FF0080216D446
:100A30001EE040F60E0125EA0100606016E045F078
:100A400040006060A80723464FF00A0207D40FE079
:100A500045F040006060A80708D5234610226FF0DB
:100A600001000B99AFF300805AE007E02346102203
:100A70006FF001000B99FFF7DBFB51E04FF000092D
:100A80004F464B46632802D05B2807D041E02079CF
:100A9000C00601D40120A06001273AE0626901216B
:100AA000019890475E2805D14FF0010962694946D7
:100AB00001989047216939B900210A46534643F805
:100AC0002120491C0829FADBB0B3216969B9C11793
:100AD00000EBD16253110AEB830122F01F02821A4C
:100AE00001200B68904003430B606269012101986B
:100AF00090475D28E8D1B9F1000F09D00020514698
:100B000051F82020D24341F82020401C0828F7DB70
:100B100002AB224600976FF001000B99AFF3008003
:100B200000280CDA401C08D1BBF1000F05D04FF0B3
:100B3000FF300DB0BDE8F08FFFE74046F9E7E90769
:100B400001D108F1010806444FF0000B78E60000DF
:100B5000CCCCCC0C7F2801D9002208E0064A02EB5D
:100B60005002C007127800D1120902F00F020120D2
:100B70009040084070470000821F030870B58C1831
:100B800010F8015B15F0070301D110F8013B2A11A1
:100B900006D110F8012B03E010F8016B01F8016B8E
:100BA0005B1EF9D12B0705D40023521E0DD401F88A
:100BB000013BFAE710F8013BCB1A921C03E013F853
:100BC000015B01F8015B521EF9D5A142D8D3002088
:100BD00070BD10B5012003F02BF8002003F028F8B9
:100BE00010BD000008B501460020009003480090A9
:100BF0000098084400900098008808BD006C0040F0
:100C000008B500220092044A0092009A0244009221
:100C1000009A116008BD0000006C004000BFFEE7B4
:100C2000704700B5034603E04FF47A7000F005F812
:100C3000181EA3F10103F7D100BD00EBC001C900EC
:100C40004FF0E0225161002191610521116100BF47
:100C50004FF0E021096901F480310029F8D0042126
:100C60004FF0E022116170472DE9F047A4B004462F
:100C70000026B04600250020229023904FF6FF70FA
:100C8000F0231A4600210090084602F0DAF800200E
:100C900001F0E4FF002010214FF6FF720346CDE97A
:100CA00000210290E3A25A213C2002F038FC0020EF
:100CB00010214FF6FF720346CDE900210290E1A218
:100CC0006A213C2002F02BFCE3A000F05DFEE6A0D0
:100CD00000F05AFE4FF4FA70FFF7A3FFE5A000F012
:100CE00053FEEDA000F050FEF7A000F04DFEFAA07C
:100CF00000F04AFEFCA1FE4800F078FE54E02021FE
:100D0000FB4803F023FD01284ED1F94803F098FD7C
:100D1000C6B22021F64803F0C2FC3146F54803F084
:100D20009AFDB8F1000F04D1442E02D14FF0010812
:100D30003AE0B8F1010F04D1612E02D14FF0020860
:100D400032E0B8F1020F04D1742E02D14FF0030843
:100D50002AE0B8F1030F04D1652E02D14FF0040848
:100D600022E0B8F1040F1DD13A2E1BD14FF0050837
:100D700015E02021DE4803F0E9FC01280FD1DC4812
:100D800003F05EFD04A948552021D94803F087FCF3
:100D900004A8415DD74803F05EFD681CC5B21E2D56
:100DA00002DAE6E74FF000081E2DA8DBD2A1D048FA
:100DB00000F01CFEC7A003F09FFF9DF811008DF806
:100DC00088009DF812008DF889009DF813008DF8B9
:100DD0008A00CAA122A8FFF7F7F910B90020A06184
:100DE0002EE0C7A122A8FFF7EFF910B90120A061FA
:100DF00026E0C4A122A8FFF7E7F910B90220A061FC
:100E00001EE0C1A122A8FFF7DFF910B90320A061FD
:100E100016E0BEA122A8FFF7D7F910B90420A061FF
:100E20000EE0BBA122A8FFF7CFF910B90520A06101
:100E300006E0B8A122A8FFF7C7F908B90620A0610B
:100E4000002504E0002022A94855681CC5B2052DE4
:100E5000F8DB9DF816008DF888009DF817008DF8D6
:100E600089009DF8890030389DF88810303901EBF1
:100E7000810100EB410000F0FF09C4F80C909DF8DF
:100E800019008DF888009DF81A008DF889009DF8EA
:100E90001B008DF88A00A0A122A8FFF795F910B9D0
:100EA0000120206156E09DA122A8FFF78DF910B91D
:100EB000022020614EE09AA122A8FFF785F910B91F
:100EC0000320206146E097A122A8FFF77DF910B921
:100ED000042020613EE094A122A8FFF775F910B923
:100EE0000520206136E091A122A8FFF76DF910B925
:100EF000062020612EE08EA122A8FFF765F910B927
:100F00000720206126E08BA122A8FFF75DF910B928
:100F1000082020611EE088A122A8FFF755F910B92A
:100F20000920206116E085A122A8FFF74DF910B92C
:100F30000A2020610EE082A122A8FFF745F910B92E
:100F40000B20206106E07FA122A8FFF73DF908B938
:100F50000C202061002504E0002022A94855681CCF
:100F6000C5B2052DF8DB9DF81D008DF888009DF8B1
:100F70001E008DF889009DF81F008DF88A009DF8ED
:100F800020008DF88B009DF8880030384FF47A717E
:100F900048439DF88910303901EBC10202EB011181
:100FA00000EB81019DF88A00303800EB800001EBF6
:100FB00040019DF88B00303808441FFA80FAC4F8CD
:100FC00014A09DF822008DF888009DF823008DF86C
:100FD00089009DF8890030389DF88810303901EB80
:100FE000810100EB41000830C7B2182F02DBA7F1E6
:100FF0001800C7B2A7609DF825008DF888009DF8FD
:1010000026008DF889009DF8890030389DF88810F9
:10101000303901EB810100EB4100C7B267609DF8F8
:1010200028008DF888009DF829008DF889009DF82A
:10103000890089E047657474696E672074696D651D
:1010400000000000697320636F6E6E656374696EE3
:10105000672E2E2E0000000041542B43574D4F4465
:10106000453D310D0A00000041542B5253540D0AE6
:101070000000000041542B43574A41503D226F70FD
:10108000706F20796663222C22313837383132363E
:1010900030323336220D0A0041542B434950535409
:1010A0004152543D22544350222C227777772E62AE
:1010B00065696A696E672D74696D652E6F72672246
:1010C0002C38300D0A00000041542B4349504D4F3D
:1010D00044453D310D0A000041542B4349505345CE
:1010E0004E440D0A000000004745540D0A00000060
:1010F00000440040003801402B2B2B0053756E003C
:101100004D6F6E0054756500576564005468750036
:1011100046726900536174004A616E004665620060
:101120004D617200417072004D6179004A756E0028
:101130004A756C0041756700536570004F63740019
:101140004E6F76004465630030389DF88810303962
:1011500001EB810100EB4100C7B22760012001F0E3
:101160007DFD4FF6FF709623F0223C210090002079
:1011700001F067FE002010214FF6FF720346CDE913
:10118000002102900EA25A21142002F0C8F94FF457
:10119000FA70FFF746FD4FF6FF709623F0223C21D0
:1011A0000090002001F04DFE204603F077F84AF24F
:1011B000A5510420FFF724FD24B0BDE8F08700000E
:1011C00044617461206163717569736974696F6EDC
:1011D000207375636365656465642E00F0B5A1B026
:1011E00005460024002600274FF6FF70F0231A461C
:1011F00000210090084601F024FE002001F02EFDA1
:10120000002010214FF6FF720346CDE90021029025
:10121000E0A25A213C2002F082F9002010214FF672
:10122000FF720346CDE900210290DEA26A213C2034
:1012300002F075F9E0A000F0A7FBE1A000F0A4FB2C
:10124000E3A000F0A1FB4FF4FA70FFF7EAFCE3A083
:1012500000F09AFBE5A000F097FBEDA000F094FBF6
:10126000F6A000F091FBF9A000F08EFBFB49FC48D2
:1012700000F0BCFB8BE02021F94803F067FA01285D
:10128000F8D1F74803F0DCFAC6B22021F44803F0A5
:1012900006FA3146F34803F0DEFA3A2E77D1781C8D
:1012A000C7B2042F1BD1002416E02021EC4803F024
:1012B0004DFA012810D1EA4803F0C2FAC6B2202143
:1012C000E74803F0ECF93146E64803F0C4FA0DF1C3
:1012D0002A000655601CC4B22C2E58D0E5E70B2F0F
:1012E0001BD1002416E02021DD4803F02FFA01284D
:1012F00010D1DB4803F0A4FAC6B22021D84803F08D
:10130000CEF93146D74803F0A6FA0DF13E00065556
:10131000601CC4B22C2E3AD0E5E70C2F1BD1002460
:1013200016E02021CE4803F011FA012810D1CC4854
:1013300003F086FAC6B22021C94803F0B0F931465D
:10134000C84803F088FA0DF152000655601CC4B27B
:101350002C2E1CD0E5E70D2F19D1002415E02021FB
:10136000BF4803F0F3F901280FD1BD4803F068FA34
:10137000C6B22021BA4803F092F93146B94803F0C9
:101380006AFA17A80655601CC4B22C2EE7D10D2F9F
:10139000FFF671AF4FF4FA70FFF743FC0027B24934
:1013A000AF4800F023FB6DE02021AD4803F0CEF9FB
:1013B000012867D1AA4803F043FAC6B22021A84801
:1013C00003F06DF93146A74803F045FA3A2E59D19A
:1013D000781CC7B2102F1BD1002416E02021A04892
:1013E00003F0B4F9012810D19D4803F029FAC6B2E0
:1013F00020219B4803F053F931469A4803F02BFA19
:101400000DF166000655601CC4B22C2E3AD0E5E7FB
:10141000112F1AD1002415E02021914803F096F9EC
:1014200001280FD18E4803F00BFAC6B220218C4858
:1014300003F035F931468B4803F00DFA1CA8065528
:10144000601CC4B22C2E1DD0E6E7182F1AD1002440
:1014500016E02021824803F079F9012810D1804854
:1014600003F0EEF9C6B220217D4803F018F93146A9
:101470007C4803F0F0F90DF17A000655601CC4B207
:101480002C2EE6D1182F8FDB4FF4FA70FFF7C9FB33
:1014900076A1734800F0AAFA012406E00DF12A00B3
:1014A000015D601E2954601CC4B20DF12A00005D6C
:1014B0002228F3D10021601E2954012408E00DF1F7
:1014C0003E00025D601E05F114010A54601CC4B2A6
:1014D0000DF13E00005D2228F1D10022601E05F1D1
:1014E00014010A54002085F8280001240DE00DF1B4
:1014F0005200005D303895F8281001EB810100EBB7
:10150000410085F82800601CC4B20DF15200005D56
:101510002228ECD1002085F829009DF85D002D28B7
:1015200014D001240DE017A8005D303895F829107B
:1015300001EB810100EB410040B285F82900601CFD
:10154000C4B217A8005D2228EDD119E002240DE0F5
:1015500017A8005D303895F8291001EB810100EBE8
:10156000410040B285F82900601CC4B217A8005D94
:101570002228EDD195F82900404240B285F8290093
:10158000002085F82A009DF867002D2801D001244D
:101590007DE082E047657474696E672077656174E9
:1015A00068657200697320636F6E6E656374696E3F
:1015B000672E2E2E0000000041540D0A000000008E
:1015C00041542B43574D4F44453D310D0A00000017
:1015D00041542B5253540D0A0000000041542B4338
:1015E00049504D55583D300D0A00000041542B43E1
:1015F000574A41503D226F70706F20796663222CEC
:10160000223138373831323630323336220D0A0043
:1016100041542B43495053544152543D225443505A
:10162000222C226170692E73656E6976657273650E
:101630002E636F6D222C38300D0A000041542B436D
:1016400049504D4F44453D310D0A000041542B4354
:10165000495053454E440D0A00000000482003083D
:101660000044004000380140C41F03082B2B2B000E
:101670000DF16600005D303895F82A1001EB81010C
:1016800000EB410040B285F82A00601CC4B20DF1A5
:101690006600005D2228EBD11BE002240EE00DF174
:1016A0006600005D303895F82A1001EB810100EBEF
:1016B000410040B285F82A00601CC4B20DF16600FA
:1016C000005D2228EBD195F82A00404240B285F80F
:1016D0002A00002085F82B009DF871002D2814D0D9
:1016E00001240DE01CA8005D303895F82B1001EBAB
:1016F000810100EB410040B285F82B00601CC4B2B0
:101700001CA8005D2228EDD119E002240DE01CA8E0
:10171000005D303895F82B1001EB810100EB4100A2
:1017200040B285F82B00601CC4B21CA8005D2228C2
:10173000EDD195F82B00404240B285F82B000020F7
:1017400085F82C0001240DE00DF17A00005D3038A1
:1017500095F82C1001EB810100EB410085F82C007D
:10176000601CC4B20DF17A00005D2228ECD101208A
:1017700001F074FA4FF6FF709623F0223C2100909E
:10178000002001F05EFB002010214FF6FF7203469F
:10179000CDE9002102901CA25A21142001F0BFFEC5
:1017A00020A003F0A9FA294624A003F0A5FA05F128
:1017B000140125A003F0A0FA15F8281F26A003F0B5
:1017C0009BFA95F9011029A003F096FA95F90210F9
:1017D0002BA003F091FA95F903102DA003F08CFAD9
:1017E0002979283D2EA003F087FA4FF4FA70FFF70D
:1017F00018FA4FF6FF709623F0223C21009000204B
:1018000001F01FFB21B0F0BD446174612061637180
:101810007569736974696F6E207375636365656458
:1018200065642E000D0AD2D1BBF1C8A1B3C9B9A617
:10183000CAFDBEDDC8E7CFC23A0D0A0063697479FC
:101840003A25730D0A000000776561746865723A85
:1018500025730D0A000000007765617468657220C9
:10186000636F64653A25640D0A00000074656D704D
:10187000657261747572653A25640D0A0000000096
:1018800074656D5F686967683A25640D0A00000039
:1018900074656D5F6C6F773A25640D0A0000000077
:1018A00068756D69646974793A25640D0A000000F1
:1018B00008B50121042002F0ABF90420ADF80000C6
:1018C00018208DF8030003208DF8020069460748B0
:1018D00000F0A0F80820ADF8000004208DF8030007
:1018E0006946024800F096F808BD00000008014073
:1018F00010B500F025F8FFF7DBFF00F001F810BD90
:101900001FB50121480402F073F94FF4E130009053
:101910000020ADF80400ADF80600ADF80800ADF801
:101920000C000C20ADF80A006946044802F01CFFC8
:101930000121024802F0BCFE1FBD0000004400402F
:1019400008B54FF4A06002F041F926208DF80000A0
:1019500001208DF8010000208DF8020001208DF893
:101960000300684602F0FAF808BD70B504460D465B
:101970002946204602F069FF00BF8021204602F080
:10198000E5FE0028F9D070BD70B505460026294651
:10199000134800F02BF81FE02021114802F0D6FE7A
:1019A000012819D10E4802F04BFFC4B220210C4887
:1019B00002F075FE21460B4802F04DFF4F2C01D17D
:1019C000012609E0012E07D14B2C05D1002606A1E6
:1019D000044802F04FFF00E0DEE700BF70BD0000EA
:1019E00000440040003801400D0A000070B5054673
:1019F0000C4604E014F8011B2846FFF7B6FF2078D8
:101A00000028F7D100BF4021284602F09FFE0028A1
:101A1000F9D070BD2DE9F0410246002500260020D6
:101A200000230024002791F803C00CF00F0591F863
:101A300003C00CF0100CBCF1000F03D091F802C0F1
:101A40004CEA050591F800C0BCF1000F31D01468D4
:101A500000202BE04FF0010C0CFA00F3B1F800C0AD
:101A60000CEA03069E4220D183004FF00F0C0CFAC3
:101A700003F7BC4305FA03FC4CEA040491F803C0E5
:101A8000BCF1280F06D14FF0010C0CFA00FCC2F893
:101A900014C00AE091F803C0BCF1480F05D14FF023
:101AA000010C0CFA00FCC2F810C0401C0828D1D36D
:101AB0001460B1F800C0BCF1FF0F34DD54680020A1
:101AC0002EE000F1080C4FF0010808FA0CF3B1F811
:101AD00000C00CEA03069E4221D183004FF00F0C98
:101AE0000CFA03F7BC4305FA03FC4CEA040491F832
:101AF00003C0BCF1280F05D100F1080C08FA0CF85E
:101B0000C2F8148091F803C0BCF1480F07D100F16E
:101B1000080C4FF0010808FA0CF8C2F81080401CBD
:101B20000828CED35460BDE8F0810000F0B50A4625
:101B3000002300240021002500F00046B6F1004FEC
:101B400002D11D4EF16901E01B4E7168C0F30345DF
:101B500083B200F44016B6F5401F08D121F0706141
:101B6000154E766826F07066134F7E6012E000F422
:101B70008016B6F5801F06D1032606FA05F4A143A8
:101B800041F0706106E0460D360103FA06F6B143F6
:101B900041F0706122B1460D360103FA06F6314379
:101BA00000F00046B6F1004F02D1034EF16101E0B2
:101BB000014E7160F0BD00000000014002460020AF
:101BC00093680B400BB1012000E000207047416199
:101BD00070470161704700002DE9FF4F83B00C464C
:101BE0001F466421039890FBF1F0C0B20190039866
:101BF00090FBF1F201FB1200C5B20198132806D048
:101C00000198142803D0002007B0BDE8F08F019898
:101C1000142806D105F1630000EB40001FFA80F99B
:101C200004E0681E00EB40001FFA80F9694909F1E1
:101C30000200085C00F0600A4FEA6A1A09F102002B
:101C4000085C00F01F0BBAF1010F04D1ABF10100E9
:101C500000F0FF0803E00BF11E0000F0FF080A2C63
:101C600007DA601E5C49095C05980844401E86B28C
:101C700008E0A4F10A00594931F810100598084409
:101C8000401E86B2022C08DDE91705EB9171891020
:101C9000A5EB810109B9701C86B246453EDBA6EB77
:101CA000080086B2012401200290002000904946DD
:101CB000029800F01FFA10B94FF01D0A01E04FF032
:101CC0001E0A444911F80900C11700EB11714FEACF
:101CD000211B1DE0A6EB0A0086B20298401CC0B290
:101CE00002905C4508D10098C043C0B200900098B3
:101CF00020B9601CC4B201E0601CC4B2494602981D
:101D000000F0F8F910B94FF01D0A01E04FF01E0A7B
:101D10005645DFDA701CC0B205904FE0A8EB060014
:101D200000F0FF081DB963251320019001E0681E33
:101D3000C5B2A9F103001FFA80F90C24254911F856
:101D40000900C11700EB11714FEA211BBBF1000F15
:101D500002D10C20029001E00D20029000200090A2
:101D60004946029800F0C6F910B94FF01D0A01E08B
:101D70004FF01E0A1BE0A8EB0A0000F0FF080298D3
:101D8000401EC0B20290009808B9601EC4B25C4503
:101D900003D10098C043C0B200904946029800F0B9
:101DA000A9F910B94FF01D0A01E04FF01E0AD04505
:101DB000E1DCAAEB0800401CC0B20590019807F8CE
:101DC000010B07F8015B07F8014B059838700120FB
:101DD0001AE70000541C03085A1F0308641F030875
:101DE0002DE9FC4105460E4617461C460F223CA134
:101DF000204602F015FA01AB3A4631462846FFF775
:101E0000EBFE08B9BDE8FC819DF805209DF80410A3
:101E100001EBC10303EB011102EB8100694600F005
:101E2000F9F99DF800000A2190FBF1F201FB120084
:101E30002F4951F8208002224146204602F0F0F955
:101E40009DF800000C2190FBF1F201FB12002949E2
:101E500051F8208002224146A01C02F0E1F99DF8D1
:101E60000600012805D1022223A1A01D02F0D8F905
:101E700009E09DF80600401E204A52F82010022278
:101E8000A01D02F0CDF99DF807000A280EDD9DF88F
:101E900007000A2190FBF1F0194951F82080022235
:101EA000414604F10A0002F0BBF905E0022215A147
:101EB00004F10A0002F0B4F99DF80700401E0A215F
:101EC00090FBF1F201FB12000C4951F82080022234
:101ED000414604F10C0002F0A3F900BF92E70000B4
:101EE000BCD7D7D3C4EAD5FDD4C2B3F5D2BB00006A
:101EF000D4010020FC010020D5FD00002C020020B0
:101F00005C020020B3F500002DE9F04104460D46C7
:101F1000B4F5FA6F03DB40F60200844202DD0020D4
:101F2000BDE8F0810DB10C2D01DD0020F8E7681E41
:101F30004006010E0F2A01DB481CC1B208464FEAD9
:101F4000E17C01EB5C7C4FEAEC08A4F5FA6C0CEB4D
:101F50004C0CC444DFF8508018F80C604FEAE17C68
:101F600001EB5C7C4FEAEC0CA1EBCC0C06FA0CFC10
:101F70000CF080070D48405C187097B1012905D01E
:101F80000B2903D0122901D0152907D140F2FC708A
:101F9000844203DA1878401C187002E01878401E5A
:101FA00018700120BCE70000A91E0308421F0308A7
:101FB0002DE9F8430546884614461E466B462246E0
:101FC00041462846FFF7A0FF10B90020BDE8F8837E
:101FD000A8F101004006070E0F2C01DB781CC7B2E8
:101FE0009DF80000844208D13C4850F82710052293
:101FF000304602F015F90120E8E70F2238A13046FB
:1020000002F00EF99DF8000084420BDA334850F8D4
:1020100027100422B01C02F003F99DF80000001BF9
:10202000C4B24DE0781C172801DD0020CEE72B4A12
:10203000781C52F820100422B01C02F0F1F80F2C8A
:102040000ADA6B460F2241462846FFF75DFF9DF8EE
:102050000000001BC4B233E0A8F10100244911F8CC
:102060000090B8F1020F17D1E91705EB91718910B3
:10207000A5EB810181B9642195FBF1F201FB1251BD
:1020800031B94FF4C87195FBF1F201FB125119B946
:1020900009F1010000F0FF0908F10100C0B280461B
:1020A0000D2801D14FF001086B4601224146284618
:1020B000FFF72AFFA9EB04009DF800100844C4B202
:1020C0000A2094FBF0F03030B0720A2094FBF0F15B
:1020D00000FB11403030F072012077E774010020DE
:1020E000C0EBC1A2B6ACBBB9D3D03F3FCCEC000033
:1020F000761F030802460E2A70D2DFE802F0860738
:102100001019222B353F49535D67727C4048405C73
:1021100000F0080008B9002070470120FCE73C48A7
:10212000405C00F0040008B90020F5E70120F3E767
:102130003748405C00F0020008B90020ECE70120BD
:10214000EAE73348405C00F0010008B90020E3E70B
:102150000120E1E72E4B481C185C00F0800008B914
:102160000020D9E70120D7E7294B481C185C00F074
:10217000400008B90020CFE70120CDE7244B481CE0
:10218000185C00F0200008B90020C5E70120C3E773
:102190001F4B481C185C00F0100008B90020BBE77A
:1021A0000120B9E71A4B481C185C00F0080008B978
:1021B0000020B1E70120AFE7154B481C185C00F088
:1021C000040008B90020A7E70120A5E7104B481C30
:1021D000185C00F0020010B900209DE715E0012016
:1021E0009AE70B4B481C185C00F0010008B900206E
:1021F00092E7012090E7064B881C185C00F08000F5
:1022000008B9002088E7012086E7002084E7000065
:10221000541C030810B50A46B0F5F86F09DBA0F5A9
:10222000F86398B23C2390FBF3F403FB1403D9B298
:102230000AE0C0F5F86398B23C2390FBF3F403FB8B
:102240001403C3F13C03D9B2117010BDF0B58DB0C9
:1022500004463022224901A8FDF788FF6069451E27
:10226000642195FBF1F12846EA1705EB9272C1EB68
:10227000A2014FF4C87295FBF2F28F186069C11782
:1022800000EB91718910A0EB810191B96422616921
:1022900091FBF2F302FB131131B99200616991FBDA
:1022A000F2F302FB131121B92169022901DD012694
:1022B00000E0002640F26D1005FB00712069401E11
:1022C00001AA52F820000844E168084406440720A7
:1022D00096FBF0F100FB1160A0610DB0F0BD0000B5
:1022E000241C030800BFFEE708B50121042001F00B
:1022F0008FFC4FF48070ADF8000014208DF80300BF
:1023000003208DF8020069460448FFF783FB4FF471
:1023100080710248FFF75DFC08BD00000008014025
:1023200008B50121102001F073FC4FF48070ADF866
:10233000000048208DF8030069460748FFF76AFB54
:102340004FF40070ADF8000048208DF80300694696
:102350000148FFF75FFB08BD0010014070B504465F
:102360000D4629462046FFF729FC40B900BF294603
:102370002046FFF723FC0028F9D0002070BD012083
:10238000FCE72DE9F04107460C4615461E462A207B
:1023900001F09CFB384601F089FB284601F086FBE2
:1023A0002B2001F093FB204601F080FB304601F02A
:1023B0007DFB2C2001F08AFBBDE8F08170B588B070
:1023C000054605240C26142103A8FDF7E8FE96A176
:1023D0002846FDF7F9FE70B9012018214FF6FF726B
:1023E0001F23CDE90021029092A2314604F1500052
:1023F00000F0AEFE12E091A12846FDF7E5FE68B9B7
:10240000012018214FF6FF721F23CDE90021029011
:102410008CA2314604F1500000F09AFE95F8280095
:10242000142872D00DDC142835D2DFE800F02D2EF0
:102430002F30353A3B4041464B50555A5F64696FE7
:1024400074791E2871D00ADCA0F115000928EBD29E
:10245000DFE800F0717682878C91969BA00023289C
:1024600073D008DC1F2871D0202870D021286FD0AD
:10247000222810D1A7E024286BD025286AD026284E
:1024800069D06328F5D1B7E000BF00BF00BF6FA1DE
:1024900003A8FDF7B4FEB4E06DA103A8FDF7AFFEFD
:1024A000AFE000BF6CA103A8FDF7A9FEA9E000BF43
:1024B0006CA103A8FDF7A3FEA3E06DA103A8FDF79F
:1024C0009EFE9EE06BA103A8FDF799FE99E06BA12B
:1024D00003A8FDF794FE94E06AA103A8FDF78FFE20
:1024E0008FE06CA103A8FDF78AFE8AE06BA103A828
:1024F000FDF785FE85E06BA103A8FDF780FE80E077
:102500006AA103A8FDF77BFE7BE00FE069A103A8A9
:10251000FDF775FE75E069A103A8FDF770FE70E098
:1025200069A103A8FDF76BFE6BE038E068A103A882
:10253000FDF765FE65E068A103A8FDF760FE60E0B9
:1025400067A103A8FDF75BFE5BE041E02CE030E013
:1025500034E042E046E04AE063A103A8FDF74FFE05
:102560004FE063A103A8FDF74AFE4AE062A103A879
:10257000FDF745FE45E062A103A8FDF740FE40E0FF
:1025800061A103A8FDF73BFE3BE061A103A8FDF7B5
:1025900036FE36E060A103A8FDF731FE31E061A10F
:1025A00003A8FDF72CFE2CE05FA103A8FDF727FE92
:1025B00027E05EA103A8FDF722FE22E05CA103A8AC
:1025C000FDF71DFE1DE05CA103A8FDF718FE18E055
:1025D0005BA103A8FDF713FE13E05CA103A8FDF7C0
:1025E0000EFE0EE05BA103A8FDF709FE09E05AA16B
:1025F00003A8FDF704FE04E058A103A8FDF7FFFDC2
:1026000000BF00BF012018214FF6FF7240F2FF53B8
:10261000CDE90021029003AA06F11E0104F1500049
:1026200000F096FD08B070BD4775616E6779756101
:102630006E000000B9E3D4AACAD000004A696178EC
:10264000696E6700BCCED0CBCAD00000C7E70000DF
:10265000B6E0D4C600000000C7E7BCE4B6E0D4C6CC
:1026600000000000B4F3B2BFB6E0D4C60000000022
:10267000D2F50000D5F3D3EA00000000C0D7D5F3AF
:10268000D3EA0000C0D7D5F3D3EAB0E9D3D0B1F98B
:10269000B1A20000D0A1D3EA00000000D6D0D3EA56
:1026A00000000000B4F3D3EA00000000B1A9D3EAAF
:1026B00000000000B4F3B1A9D3EA0000CCD8B4F311
:1026C000B1A9D3EA00000000B6B3D3EA00000000CD
:1026D000D3EABCD0D1A90000D5F3D1A900000000F5
:1026E000D0A1D1A900000000D6D0D1A900000000DF
:1026F000B4F3D1A900000000B1A9D1A900000000E5
:10270000B8A1B3BE00000000D1EFC9B300000000C3
:10271000C9B3B3BEB1A90000C7BFC9B3B3BEB1A9A5
:1027200000000000CEED0000F6B20000B7E70000A8
:10273000B4F3B7E700000000ECABB7E7000000001F
:10274000C8C8B4F8B7E7B1A900000000C1FABEEDEF
:10275000B7E70000C0E40000C8C80000CEB4D6AAA5
:10276000000000002DE9F04F87B082464FF01909B4
:10277000AF2487A00068069086A0006805909AF9AB
:10278000291001F11400FDF7DAFE07460022824B02
:10279000FDF766FE05460022804BFDF7EFFDCDE913
:1027A0000201FDF7FEFE83469AF82C00FDF7D8FEE5
:1027B00000227B4BCDE90201FDF752FE05460022C7
:1027C000764BFDF7DBFD0746FDF7EBFE049001209D
:1027D00018214FF6FF724FF47843CDE900210290A3
:1027E00070A22146484600F0B3FC48F2304004F1A4
:1027F0000F0309F19B02611D009009F1370000F001
:10280000FBFA5846FDF7B9FEC0B2C0F15F0109F10D
:102810009900401A85B24FF47840009004F10D0001
:1028200083B22A4604F1080109F13A0000F009FBDD
:102830009AF92900002820DB10204FF6FF714FF491
:102840007842CDE9002102909AF9290082B2022350
:10285000E11C09F1A10000F017FE012010214FF644
:10286000FF724FF47843CDE90021029006AAE11CE3
:1028700009F1B10000F0A6FC34E09AF829004042CA
:1028800040B28AF82900012010214FF6FF724FF460
:102890007843CDE9002102902D22E11C09F1A1002D
:1028A00000F0E0FB10204FF6FF714FF47842CDE9C5
:1028B000002102909AF9290082B20223E11C09F159
:1028C000A90000F0E1FD012010214FF6FF724FF446
:1028D0007843CDE90021029006AAE11C09F1B90074
:1028E00000F070FC012018214FF6FF7240F21143F6
:1028F000CDE9002102902DA204F11E01484600F00E
:1029000027FC48F2304004F12D0309F19B0204F149
:102910002301009009F1370000F06EFA0498FDF7EA
:102920002CFEC0B2C0F15F0109F19900401A85B2D6
:102930001F20009004F12B0083B22A46411F09F1A9
:102940003A0000F07EFA10204FF6FF7140F211427B
:10295000CDE9002102909AF82C20022304F12101F4
:1029600009F1A10000F090FD012010214FF6FF7247
:1029700040F21143CDE90021029005AA04F12101A2
:1029800009F1B10000F01EFC07B0BDE8F08F0000B7
:10299000A1E60000A3A500000080514000C0574000
:1029A00000005940CEC2B6C800000000CAAAB6C88E
:1029B00000000000FEB506467824642520204FF66E
:1029C000FF7148F21F42CDE900210290B08A82B225
:1029D000A5F13D0081B2042304F1230000F054FD71
:1029E00030204FF6FF710022CDE90021029033899B
:1029F0009AB2A5F1180399B2A4F1600398B2022328
:102A000000F042FD002030214FF6FF72CDE9002199
:102A10000290A5F1180291B2A4F1300290B2002305
:102A20003A2200F01FFB30204FF6FF710022CDE963
:102A300000210290B3889AB2A5F1180399B2A4F1CB
:102A4000180398B2022300F01FFD002030214FF63A
:102A5000FF72CDE900210290A5F1180081B2002398
:102A60003A2204F1180000F0FDFA30204FF6FF7111
:102A70004FF62052CDE900210290308882B2A5F1B4
:102A8000180081B2022304F1300000F0FDFC202088
:102A90004FF6FF710022CDE900210290318A8AB2FF
:102AA000A4F1600188B2022305F1180100F0ECFCEA
:102AB000012020214FF6FF72CDE900210290A4F100
:102AC000400188B24FF61F035BA205F1180100F028
:102AD0003FFB20204FF6FF710022CDE9002102903C
:102AE000B1898AB2A4F1200188B2022305F118014C
:102AF00000F0CAFC012020214FF6FF72CDE9002131
:102B00000290A0B24FF61F034CA205F1180100F08D
:102B10001FFB002020214FF6FF72CDE9002102901B
:102B200004F1200188B24FF61F0345A205F11801F8
:102B300000F00EFBB06907287CD2DFE800F0041536
:102B4000263748596A00002020214FF6FF72CDE950
:102B50000021029004F1400188B2002337A205F160
:102B6000180100F0F5FA65E0002020214FF6FF7211
:102B7000CDE90021029004F1400188B2002331A286
:102B800005F1180100F0E4FA54E0002020214FF68E
:102B9000FF72CDE90021029004F1400188B20023C8
:102BA00029A205F1180100F0D3FA43E0002020210A
:102BB0004FF6FF72CDE90021029004F1400188B286
:102BC000002322A205F1180100F0C2FA32E0002031
:102BD00020214FF6FF72CDE90021029004F140015F
:102BE00088B200231AA205F1180100F0B1FA21E021
:102BF000002020214FF6FF72CDE90021029004F160
:102C0000400188B2002313A205F1180100F0A0FAD8
:102C100010E0002020214FF6FF72CDE90021029044
:102C200004F1400188B200230BA205F1180100F065
:102C30008FFA00BF00BFFEBDD4C20000C8D500009F
:102C4000D6DC0000D2BB0000B6FE0000C8FD0000CC
:102C5000CBC40000CEE50000C1F900007CB50646FB
:102C6000C424032548F2304005F10C0304F1250289
:102C700029460090204600F0BFF848F2304005F1A8
:102C8000090304F12802E91C009004F1260000F079
:102C9000D8F84FF4FC6005F10B0304F12402A91CE1
:102CA0000090A01C00F0CDF87EB94FF6FF704FF4F5
:102CB0007841AA1ECDE9001091B2A4F11A0290B297
:102CC0001323182200F0CCFD0FE0012E0DD14FF69A
:102CD000FF700021AA1ECDE9001091B2A4F11A02E2
:102CE00090B21323182200F0BBFD7CBDF8B504465A
:102CF0000A25062694F82800632809DC94F82800A1
:102D000046233C2231460090284600F037FC04E080
:102D100002A001F0F1FF00BFFEE7F8BDCCECC6F861
:102D2000CDBCC6ACBBF1C8A1D2ECB3A30D0A000068
:102D30002DE9FF4F85B081468A46002003908346E7
:102D40000798A0EB09040898A0EB0A06CDF80890B4
:102D5000CDF804A0002C01DD012705E00CB9002707
:102D600002E04FF0FF376442002E02DD4FF0010811
:102D700006E016B94FF0000802E04FF0FF38664257
:102D8000B44201DD254600E03546002004901EE0F7
:102D9000019A91B2029A90B2129A00F01FF8039829
:102DA00020440390B3440398A84205DD0398401BD8
:102DB0000390029838440290AB4504DDABEB050B61
:102DC0000198404401900498401C80B20490A91CD2
:102DD00004988842DCDB09B0BDE8F08F70B504468A
:102DE0000D4616462B46224629462046FFF7C9FACD
:102DF000304600F05BFE70BD2DE9F84305460E46F7
:102E000017469846089C33463A4631462846009471
:102E1000FFF78EFF43462A46314628460094FFF7C7
:102E200087FF43463A46414628460094FFF780FF15
:102E300043463A46314638460094FFF779FFBDE8ED
:102E4000F8832DE9F04706460F4614461D46DDF887
:102E500020A0681E83B2601E82B239463046FFF75A
:102E600090FAB8460EE0B14606E0504600F01EFE6D
:102E700009F101001FFA80F9A145F6DB08F1010014
:102E80001FFA80F8A845EEDBBDE8F08708B5012100
:102E9000092000F0BDFE01210B48FEF747FE4FF46C
:102EA000F870ADF8000003208DF8020010208DF8B6
:102EB000030069460548FEF7ADFD4FF4F87103487D
:102EC000FEF787FE08BD000000023000000C014044
:102ED00010B5FFF7DBFF01F0C3F84FF480716048D5
:102EE000FEF777FE6420FDF79CFE112000F0EEFD5A
:102EF0007820FDF796FE362000F0E8FD002000F077
:102F0000DEFD3A2000F0E2FD052000F0D8FDB22001
:102F100000F0DCFD0C2000F0D2FD0C2000F0CFFD15
:102F2000002000F0CCFD332000F0C9FD332000F07C
:102F3000C6FDB72000F0CAFD352000F0C0FDBB2063
:102F400000F0C4FD192000F0BAFDC02000F0BEFD65
:102F50002C2000F0B4FDC22000F0B8FD012000F0EC
:102F6000AEFDC32000F0B2FD122000F0A8FDC42089
:102F700000F0ACFD202000F0A2FDC62000F0A6FD70
:102F80000F2000F09CFDD02000F0A0FDA42000F058
:102F900096FDA12000F093FDE02000F097FDD020E9
:102FA00000F08DFD042000F08AFD0D2000F087FD6B
:102FB000112000F084FD132000F081FD2B2000F093
:102FC0007EFD3F2000F07BFD542000F078FD4C207A
:102FD00000F075FD182000F072FD0D2000F06FFD6F
:102FE0000B2000F06CFD1F2000F069FD232000F095
:102FF00066FDE12000F06AFDD02000F060FD0420B5
:1030000000F05DFD0C2000F05AFD112000F057FD8E
:10301000132000F054FD2C2000F051FD3F2000F063
:103020004EFD442000F04BFD512000F048FD2F20C4
:1030300000F045FD1F2000F042FD1F2000F03FFD85
:10304000202000F03CFD232000F039FD212000F07D
:103050003DFD112000F03AFD292000F037FD10BDA4
:10306000000C01402DE9FF4F83B005460F469846FE
:10307000119C204604EBD071C1F3470A0295002051
:10308000019000908346102C02D14FF4805B08E041
:10309000202C02D14FF4005B03E0302C01D14FF41F
:1030A000A04B0AFB04F0C11700EB5171C1F3CF0133
:1030B00001910199059800FB01BB3819401E83B2AC
:1030C00005EB0A00401E82B239462846FFF759F93F
:1030D0004FF0000936E001225946684601F0E4FB52
:1030E000002626E0129868B90120B0409DF8001033
:1030F000084018B1404600F0D9FC18E0109800F0E4
:10310000D5FC14E00120B0409DF80010084020B12B
:10311000424639462846FFF761FE681C85B2029890
:10312000281A504503D1029D781C87B203E0701C19
:10313000C6B2082ED6DB00BF0BF1010B09F101006E
:1031400000F0FF0901988145C5DB07B0BDE8F08FAD
:103150002DE9FE4F8046894615469A46DDE90D4722
:103160000C9E2AE0102C09D153462A464946404677
:10317000CDE90147009600F025F819E0182C09D197
:1031800053462A4649464046CDE90147009600F09D
:103190008FF80DE0202C09D153462A464946404677
:1031A000CDE90147009600F0F9F801E0BDE8FE8F97
:1031B000AD1C08EB04001FFA80F828780028D1D154
:1031C00000BFF3E72DE9F04F85B005460F46904666
:1031D00099460F9CAA4600BF00BF00BF0020009088
:1031E0004FF4204BE11704EB5171C910614389B2D0
:1031F000039198F80000029098F80100019001985E
:10320000A0F1A1010298A138C0EB001202EB40101E
:1032100001EB4001039801FB00BB3819401E83B24B
:103220002819401E82B239462846FFF7AAF8002026
:10323000049036E001225946684601F035FB00262D
:1032400026E0109868B90120B0409DF800100840B1
:1032500018B1484600F02AFC18E00E9800F026FC51
:1032600014E00120B0409DF80010084020B14A460B
:1032700039462846FFF7B2FD681C85B2A5EB0A0067
:10328000A04203D15546781C87B203E0701CC6B239
:10329000082ED6DB00BF0BF1010B0498401CC0B216
:1032A0000490DDE903108842C4DB05B0BDE8F08F6F
:1032B0002DE9F04F85B005460F46904699460F9C84
:1032C000AA4600BF00BF00BF002000904FF4962B1D
:1032D000E11704EB5171C910614389B2039198F869
:1032E0000000029098F8010001900198A0F1A1015E
:1032F0000298A138C0EB001202EB401001EB400134
:10330000039801FB00BB3819401E83B22819401EE8
:1033100082B239462846FFF734F80020049036E0A0
:1033200001225946684601F0BFFA002626E01098AF
:1033300068B90120B0409DF80010084018B1484617
:1033400000F0B4FB18E00E9800F0B0FB14E0012090
:10335000B0409DF80010084020B14A463946284642
:10336000FFF73CFD681C85B2A5EB0A00A04203D123
:103370005546781C87B203E0701CC6B2082ED6DB17
:1033800000BF0BF1010B0498401CC0B20490DDE9B2
:1033900003108842C4DB05B0BDE8F08F2DE9F04F83
:1033A00085B005460F46904699460F9CAA4600BF39
:1033B00000BF00BF002000904FF45C2BE11704EB2E
:1033C0005171C910614389B2039198F800000290CD
:1033D00098F8010001900198A0F1A1010298A1388C
:1033E000C0EB001202EB401001EB4001039801FB1F
:1033F00000BB3819401E83B22819401E82B23946DC
:103400002846FEF7BEFF0020049036E00122594610
:10341000684601F049FA002626E0109868B90120B4
:10342000B0409DF80010084018B1484600F03EFB3F
:1034300018E00E9800F03AFB14E00120B0409DF82F
:103440000010084020B14A4639462846FFF7C6FC1E
:10345000681C85B2A5EB0A00A04203D15546781C32
:1034600087B203E0701CC6B2082ED6DB00BF0BF19A
:10347000010B0498401CC0B20490DDE9031088429F
:10348000C4DB05B0BDE8F08F2DE9FF4F85B0804665
:1034900091461D46DDE913A600200490304606EB58
:1034A000D071C1F3470B002434E0281B401EC1B289
:1034B0000A2003F00DFBB9FBF0F00A21B0FBF1F29A
:1034C00001FB12070498A0B9681EA04211DD77B96C
:1034D000002007F13001CAB204FB0B81CDE900A640
:1034E000029088B2129B0699FFF7BCFD10E0012004
:1034F0000490002007F13001CAB204FB0B81CDE932
:1035000000A6029088B2129B0699FFF7ABFD00BFA0
:10351000601CC4B2AC42C8DB09B0BDE8F08F2DE935
:10352000FE4F06460F4614469846DDE90D5ADDF873
:10353000309006F0FF0B1CE020780D2807D1607852
:103540000A2804D15E46781987B2A41C11E0CDE99F
:10355000015ACDF800902278434639463046FFF7AD
:1035600081FD284605EBD07106EB61018EB2641C2B
:1035700000BF20780028DFD1BDE8FE8F2DE9F04F95
:103580008BB082468B4615461F464FF6FF7000EA09
:1035900045000A901C2277A101A8FCF7E7FD0A214B
:1035A000149890FBF1F03030C0B28DF817001498E9
:1035B00090FBF1F201FB12003030C0B28DF8180020
:1035C000012273A1734802F001FB73490870084699
:1035D000007858B10846017870A001F08DFB04E036
:1035E0004FF480717548FEF7F2FAF9E7012201A95C
:1035F000734802F01BFB684908700846007858B110
:10360000084601786FA001F077FB04E04FF4807169
:103610006A48FEF7DCFAF9E76948C6686800B6FB55
:10362000F0F080B209906800B6FBF0F100FB116089
:103630001FFA80F905FB07F0C6EB400080B2089046
:1036400000215F4802F0F1F90BEB0700401E83B246
:103650000AEB0500401E82B259465046FEF791FE25
:103660004FF000082AE06A00604B6149544802F0BC
:10367000E2FB494908700846007858B108460178CD
:103680005CA001F039FB04E04FF480714B48FEF779
:103690009EFAF9E700240AE05549085D00F00FFAA8
:1036A000534A611C505C00F00AFAA01C84B20A98CC
:1036B0008442F1DB08F101001FFA80F80998804587
:1036C000D1DB4A4B4A464A493D4802F0B4FB3249F5
:1036D00008700846007858B10846017845A001F006
:1036E0000BFB04E04FF480713448FEF770FAF9E701
:1036F000002405E03E49085D00F0E1F9601C84B259
:103700004C45F7DB002404E0FF2000F0D8F9601CF2
:1037100084B208988442F7DB294802F075F91E4903
:1037200008700846007858B1084601783AA001F0C0
:10373000E3FA04E04FF480712048FEF748FAF9E715
:10374000002213A1104602F041FA134908700846FE
:10375000007858B10846017838A001F0CDFA04E0AD
:103760004FF480711548FEF732FAF9E70BB0BDE867
:10377000F08F0000313A2F7765615F7069635F6396
:103780006F64652F79666378782E62696E00000039
:10379000313A00007802002024000020CEC4BCFE94
:1037A000B9D2D4D8CAA7B0DCA3ACB4EDCEF3B4FA86
:1037B000C2EBCEAAA3BA25640000000000080140B5
:1037C000B0120020CDBCC6ACCAFDBEDDCEC4BCFE6E
:1037D000B4F2BFAACAA7B0DCA3ACB4EDCEF3B4FA7E
:1037E000C2EBCEAAA3BA25640D0A00002C0000206B
:1037F000D8320020CDBCC6ACCAFDBEDDB6C1C8A162
:10380000CAA7B0DCA3ACB4EDCEF3B4FAC2EBCEAA37
:10381000A3BA25640D0A0000CDBCC6ACCAFDBEDD4E
:10382000CEC4BCFEB9D8B1D5D2ECB3A3A3ACB4ED31
:10383000CEF3B4FAC2EBCEAA25640000CEC4BCFE1F
:10384000CFB5CDB3C8A1CFFBB9D2D4D8D2ECB3A3F6
:10385000A3ACB4EDCEF3B4FAC2EBCEAA256400005B
:103860002DE9F04F89B081468A4615461E46DDF89F
:1038700048B0202251A101A8FCF778FC012257A1F1
:10388000574802F0A3F9574908700846007858B124
:103890000846017854A001F02FFA04E04FF480713B
:1038A0005948FEF794F9F9E7012201A9574802F0B7
:1038B000BDF94C4908700846007858B108460178AF
:1038C00053A001F019FA04E04FF480714E48FEF75E
:1038D0007EF9F9E700214D4802F0A7F805FB06F054
:1038E000C11700EB5171C1F3CF08534B4246534906
:1038F000464802F0A0FA3B4908700846007858B1E3
:10390000084601784EA001F0F7F904E04FF4807109
:103910003D48FEF75CF9F9E70AEB0600401E83B26A
:1039200009EB0500401E82B251464846FEF729FDCC
:10393000002414E000270EE04048005D802139415A
:10394000084018B1584600F0B1F802E0139800F0B2
:10395000ADF8781C87B2082FEEDB601C84B24445BA
:10396000E8DB2A4802F050F81E4908700846007843
:1039700058B1084601783BA001F0BEF904E04FF4CD
:1039800080712148FEF723F9F9E7002213A11046C0
:1039900002F01CF9134908700846007858B108462F
:1039A000017839A001F0A8F904E04FF480711648BD
:1039B000FEF70DF9F9E709B0BDE8F08F313A2F496C
:1039C000636F6E5F7069635F636F64652F796663B1
:1039D000776966692E62696E00000000313A000066
:1039E0007802002024000020CEC4BCFEB9D2D4D876
:1039F000CAA7B0DCA3ACB4EDCEF3B4FAC2EBCEAA46
:103A0000A3BA25640000000000080140B0120020A5
:103A1000CDBCC6ACCAFDBEDDCEC4BCFEB4F2BFAAEE
:103A2000CAA7B0DCA3ACB4EDCEF3B4FAC2EBCEAA15
:103A3000A3BA25640D0A00002C000020D832002013
:103A4000CDBCC6ACCAFDBEDDB6C1C8A1CAA7B0DC3C
:103A5000A3ACB4EDCEF3B4FAC2EBCEAAA3BA2564FC
:103A60000D0A0000CDBCC6ACCAFDBEDDCEC4BCFE96
:103A7000B9D8B1D5D2ECB3A3A3ACB4EDCEF3B4FABC
:103A8000C2EBCEAA25640000CEC4BCFECFB5CDB338
:103A9000C8A1CFFBB9D2D4D8D2ECB3A3A3ACB4EDB8
:103AA000CEF3B4FAC2EBCEAA2564000010B50446EA
:103AB000201200F01BF8E0B200F018F810BD10B5AD
:103AC0000446204600F012F810BD000010B5044670
:103AD00080210548FEF77BF8204600F007F880219A
:103AE0000148FEF776F810BD000C014070B50446A1
:103AF000002517E010210D48FEF769F804F080005A
:103B000020B120210948FEF764F803E0202107488E
:103B1000FEF75DF810210548FEF75BF86006040E1D
:103B2000681CC5B2082DE5DB70BD0000000C01402B
:103B300000BFFEE7704708B54FF4A06000F046F8FC
:103B400025208DF8000001208DF801008DF802007D
:103B50008DF80300684600F001F808BD70B500213B
:103B600000230F22C47804B3154C246804F4E064E5
:103B7000C4F5E064210AC1F10403CA40447804FAA0
:103B800003F184781440214309010E4C0678A155B5
:103B9000047804F01F050124AC4005786D11AD00D8
:103BA00005F1E025C5F8004109E0047804F01F059F
:103BB0000124AC40044D0678761145F8264070BDCE
:103BC0000CED00E000E400E080E100E00249014388
:103BD000024A1160704700000000FA050CED00E099
:103BE000014908627047000000000E427047000063
:103BF00029B1064AD2690243044BDA6104E0034A60
:103C0000D2698243014BDA61704700000010024024
:103C100029B1064A92690243044B9A6104E0034ABF
:103C200092698243014B9A61704700000010024084
:103C30000149086070470000400442420348406A5E
:103C400040F0807001494862704700000010024057
:103C500030B500210022002400232D4D6D6805F0B1
:103C60000C0121B1042905D0082923D105E0294DF3
:103C7000056022E0274D05601FE0254D6D6805F4C5
:103C80007012234D6D6805F48034022505EB9242D5
:103C90001CB9214D554305600BE01D4D6D6805F4C1
:103CA00000351DB11C4D5543056002E0194D5543CB
:103CB000056002E0174D056000BF00BF144D6D6840
:103CC00005F0F0010909154D6B5C0568DD404560A4
:103CD0000F4D6D6805F4E061090A104D6B5C456895
:103CE000DD4085600A4D6D6805F46051C90A0B4DD1
:103CF0006B5C4568DD40C560054D6D6805F440416D
:103D0000890B074D6B5CC568B5FBF3F5056130BDEC
:103D10000010024000127A0000093D00000000205F
:103D20001000002010B501460022002300204A1197
:103D3000012A02D1094C236806E0022A02D1074C6D
:103D4000236A01E0054C636A01F01F0201249440DC
:103D50001C400CB1012000E0002010BD001002400A
:103D60000149086070470000800442420149086030
:103D7000704700003C0442420249096A0143014A7B
:103D8000116270470010024010B504460420FCF791
:103D900029FF4AF2A55188420ED01EA000F0ACFFC8
:103DA00024A000F0A9FF204600F078FA4AF2A551BD
:103DB0000420FCF725FF2AE001214FF0C050FFF757
:103DC00017FF0120FFF70CFF0120FFF7C9FF00BF1D
:103DD0006120FFF7A7FF0028FAD07B20FFF7A2FFA2
:103DE00018B11AA000F088FF06E07A20FFF79AFFCA
:103DF00010B11FA000F080FF26A000F07DFF00F0B2
:103E00001DF90121084600F0CBF800F00DF9FFF78D
:103E100015FF10BD0D0A0D0A20525443206E6F7419
:103E20002079657420636F6E666967757265642EAC
:103E30002E2E2E000D0A0D0A2052544320636F6E61
:103E4000666967757265642E2E2E2E000D0A0D0AA6
:103E500020506F776572204F6E2052657365742015
:103E60006F636375727265642E2E2E2E0000000043
:103E70000D0A0D0A2045787465726E616C205265DA
:103E8000736574206F636375727265642E2E2E2EB7
:103E9000000000000D0A204E6F206E6565642074DE
:103EA0006F20636F6E666967757265205254432E8A
:103EB0002E2E2E0D0A0D0A00024909888143014A5F
:103EC000118070470428004010B501214FF0C05008
:103ED000FFF78EFE0120FFF783FEFCF77AFE01203C
:103EE000FFF73EFF00BF6120FFF71CFF0028FAD05C
:103EF0004FF40070FFF740FF0120FFF737FF00F09D
:103F00009DF800F091F80121084600F049F800F012
:103F10008BF849F63F4000F077F800F085F810BDC7
:103F20000348008840F010000149088070470000F5
:103F300004280040034800884FF6EF71084001490B
:103F40000880704704280040002103480188001FB2
:103F5000008841EA004070471C28004001460020CC
:103F6000064A12880A40D0B2044A121F12880A4038
:103F700012B108B1012000E0002070470428004081
:103F800010B50120FFF7EAFF38B10120FFF794FFD9
:103F900001200249086000F047F810BDA40000208D
:103FA00029B1064A12880243044B1A8004E0034AEE
:103FB00012888243014B1A8070470000002800409D
:103FC00008B54FF4C060FFF701FE03208DF8000034
:103FD00001208DF8010000208DF8020001208DF8ED
:103FE00003006846FFF7BAFD08BD000000B50246B1
:103FF000FFF796FF100C03490880091D0A80FFF7A0
:1040000099FF00BD1828004000B50246FFF788FF61
:10401000C2F3034003490880091D0A80FFF78AFFA5
:1040200000BD00000828004000BF0348008800F0E1
:1040300020000028F9D07047042800400748008875
:104040004FF6F77108400549088000BF0348008813
:1040500000F008000028F9D0704700000428004054
:1040600010B540210648FDF7B2FD6420FCF7D9FDEC
:1040700040210348FDF7ADFD6420FCF7D2FD10BDE3
:10408000000C014021B1028842F04002028004E0AD
:1040900002884FF6BF731A40028070470246002024
:1040A00013890B400BB1012000E00020704701464E
:1040B000888970478181704710B50022028802F418
:1040C00041520B884C8823438C882343CC8823435C
:1040D0000C8923434C8923438C892343CC89234374
:1040E0001A430280838B4FF2FF74234083830B8A31
:1040F000038210BD10B50446214602A000F0FCFD6D
:10410000002010BD3C3C2D464C4153482D45525299
:104110004F522D3E3E2053504920B5C8B4FDB3AC9C
:10412000CAB1216572726F72436F6465203D2025AC
:10413000640A0000704710B500F002F810BD0000DE
:104140000CB50020019000903348006840F48030A6
:104150003149086000BF3048006800F4003000902A
:104160000198401C0190009818B90198B0F5A06F13
:10417000F1D12948006800F4003010B1012000900E
:1041800001E0002000900098012843D123480068F6
:1041900040F01000214908600846006820F0030044
:1041A00008600846006840F0020008601A4840684D
:1041B000194948600846406848600846406840F42D
:1041C000806048600846406820F47C1048600846DB
:1041D000406840F4E81048600846006840F080708D
:1041E000086000BF0C48006800F000700028F9D09B
:1041F0000948406820F003000749486008464068C5
:1042000040F00200486000BF0348406800F00C0026
:104210000828F9D10CBD0000001002400020024027
:1042200010B5002305E011F8014B00F8014B5C1CB0
:10423000A3B29342F7DB10BD7047000010B51348DE
:10424000006840F0010011490860084640681049C4
:1042500008400E494860084600680E4908400B496E
:1042600008600846006820F480200860084640681E
:1042700020F4FE0048604FF41F008860FFF75BFFEA
:104280004FF000600449086010BD000000100240BB
:104290000000FFF8FFFFF6FE08ED00E070B50446F1
:1042A000FFF712FEFFF7C0FE2046FDF7CFFF2046C6
:1042B00002F03EFAA0F5E1452846FFF797FEFFF72A
:1042C000B3FE70BDF0B5B9B005460C4605F5E14644
:1042D0002146304602F024FEA06818B9606808B98B
:1042E000206818B12848006800282CD0227B217C47
:1042F000A38A98B207ABFDF76FFC9DF81F000090F2
:104300009DF81E309DF81D209DF81C101FA000F088
:10431000F3FC227B217CA38A98B207ABFDF760FDFA
:1043200007A923A000F0E8FC227B217CA38A98B295
:1043300007ABFDF73DFE18B107A91DA000F0DCFC9E
:104340000020114908606069C01E0C2190FBF1F249
:1043500001FB12001B4951F82070DFF86CC0A36903
:104360005CF8233094E80700CDE90232CDE904106F
:10437000D4E90310CDE900013B46294613486269A0
:1043800000F0BAFC39B0F0BD400100200D0A20BD9C
:10439000F1CCECD0C2C0FAA3BA25302E326425305D
:1043A0002E32642C25302E32642C25302E326400BF
:1043B0000D0A20BDF1CCECC5A9C0FAA3BA25730D36
:1043C0000A000000C4000020A8000020B820030854
:1043D00038B504460020009000256EA000F08CFC4B
:1043E00000BF7A4800F088FC694679A0FBF710FF0F
:1043F00040F2B2710098884204D340F2F6710098FE
:10440000884204D973A0009900F076FC06E07AA0F7
:10441000009900F071FC0098606100E0E1E700BFE6
:1044200000BF7B4800F068FC694669A0FBF7F0FE1E
:10443000009810B100980C2804D966A0009900F0EB
:104440005BFC06E073A0009900F056FC0098206128
:1044500000E0E6E700BF20690D2832D2DFE800F077
:10446000310714080F09100A0B110C120D0000BFC0
:1044700000BF00BF00BF00BF00BF1F2521E000BF7D
:1044800000BF00BF1E251CE06069C11700EB9171E1
:104490008910A0EB810191B96422616991FBF2F36B
:1044A00002FB131131B99200616991FBF2F302FB37
:1044B000131121B92169022901DD1D2500E01C2508
:1044C00000BF00BF00BF2946584800F015FC6946F0
:1044D0003FA0FBF79DFE009810B10098A84204D9B8
:1044E0003CA0009900F008FC06E051A0009900F003
:1044F00003FC0098E06000E0E5E700BF00BF524821
:1045000000F0FAFB694632A0FBF782FE00981728FC
:1045100004D930A0009900F0EFFB06E04BA0009911
:1045200000F0EAFB0098A06000E0E8E700BF00BFF1
:104530004C4800F0E1FB694625A0FBF769FE0098B6
:104540003B2804D923A0009900F0D6FB06E046A042
:10455000009900F0D1FB0098606000E0E8E700BF40
:1045600000BF474800F0C8FB694619A0FBF750FEA2
:1045700000983B2804D917A0009900F0BDFB06E085
:1045800040A0009900F0B8FB0098206000E0E8E748
:1045900000BF38BD0D0A3D3D3D3D3D3D3D3D3D3DEE
:1045A0003D3D3D3D3D3D3D3D3D3D3D3D3D3D3DC9AF
:1045B000E8D6C3CAB1BCE43D3D3D3D3D3D3D3D3D3A
:1045C0003D3D3D3D3D3D3D3D3D000000902103080A
:1045D000256400000D0A20C4FACAE4C8EBB5C4CAB9
:1045E000FDD7D6CAC73A2564A3ACB2BBB7FBBACFD6
:1045F000D2AAC7F3000000000A0D2020C4EAB7DDEC
:10460000B1BBC9E8D6C3CEAA3A2025640A0D000082
:10461000082103080A0D2020D4C2B7DDB1BBC9E8C8
:10462000D6C3CEAA3A2025640A0D000060220308F2
:104630000A0D2020C8D5C6DAB1BBC9E8D6C3CEAAB8
:104640003A2025640A0D00004C2103080A0D2020A1
:10465000CAB1D6D3B1BBC9E8D6C3CEAA3A20256425
:104660000A0D00001C2203080A0D2020B7D6D6D35D
:10467000B1BBC9E8D6C3CEAA3A2025640A0D000012
:10468000D82103080A0D2020C3EBD6D3B1BBC9E85B
:10469000D6C3CEAA3A2025640A0D0000704701F463
:1046A0000072B2F5007F00D100BFCA43028070479C
:1046B00021B1828942F40052828104E082894DF660
:1046C000FF731A408281704700B585B00121042034
:1046D000FFF79EFA01218803FFF79AFA4FF4007062
:1046E000ADF8100018208DF8130003208DF812008B
:1046F00004A91448FDF78EF94FF48060ADF810005E
:1047000004208DF8130004A90E48FDF783F94FF437
:10471000E13000900020ADF80400ADF80600ADF8DF
:104720000800ADF80C000C20ADF80A0069460648F8
:1047300000F01AF8FFF7FFF901210348FFF7B8FF6F
:1047400005B000BD000801400038014002460020CD
:10475000B1F5007F00D100BF13880B400BB10120E1
:1047600000E00020704700002DE9F04786B00546C4
:104770000E460024A24600BFA1460027B08900B122
:1047800000BF2F462C8A4CF6FF700440F08804438B
:104790002C82AC894EF6F3100440B088318908436E
:1047A000718908430443AC81AC8A4FF6FF40044052
:1047B000B0890443AC8201A8FFF74AFA1F48874238
:1047C00002D1DDF810A001E0DDF80CA0A88900F40A
:1047D000004040B10AEBCA0000EB0A103168490002
:1047E000B0FBF1F807E00AEBCA0000EB0A103168F1
:1047F0008900B0FBF1F86420B8FBF0F00401200957
:10480000642101FB1089A88900F4004040B13220E6
:1048100000EBC900B0FBF1F000F00700044308E032
:10482000322000EB09106421B0FBF1F000F00F0022
:1048300004432C8106B0BDE8F08700000038014039
:1048400001468888C0F308007047C1F308028280DF
:10485000704700BFFEE770B504460D462946204666
:10486000FFF7F3FF00BF80212046FFF76FFF00280E
:10487000F9D070BD70B505460C4604E014F8011B74
:104880002846FFF7E8FF20780028F7D100BF402135
:104890002846FFF75BFF0028F9D070BD10B500F087
:1048A000BDF800F0EDF810BD70B505460C46164693
:1048B00010211048FDF78BF9032000F0A7F9C4F38D
:1048C000074000F0A3F9C4F3072000F09FF9E0B21D
:1048D00000F09CF904E0FF2000F098F928706D1CAE
:1048E000301EA6F101018EB2F5D110210148FDF76D
:1048F00070F970BD000801402DE9F05F07460E46D3
:1049000014464FF00008C146C2460025AB4606F0EB
:10491000FF0ACAF10000C5B22046E11704EB11619D
:10492000C1F30728E11704EB11610912A4EB01217F
:1049300001F0FF09BAF1000F20D1B8F1000F05D145
:1049400022463146384600F0C9F864E009E04FF4E9
:1049500080723146384600F0C1F806F5807607F5DA
:104960008077B8F10000A8F1010101F0FF08EED155
:104970004A463146384600F0B1F84CE0B8F1000F35
:1049800018D1A94510DDA9EB050000F0FF0B2A4660
:104990003146384600F0A2F82E442F445A4631469C
:1049A000384600F09BF836E022463146384600F0A3
:1049B00095F830E0601B84B22046E11704EB1161EA
:1049C000C1F30728E11704EB11610912A4EB0121DF
:1049D00001F0FF092A463146384600F07FF82E44A0
:1049E0002F4409E04FF480723146384600F076F8E3
:1049F00006F5807607F58077B8F10000A8F101018F
:104A000001F0FF08EED1B9F1000F04D04A4631465B
:104A1000384600F063F8BDE8F09F000008B50121BA
:104A2000C420FFF7F5F81020ADF8000003208DF842
:104A3000020010208DF8030069461048FCF7EAFFD9
:104A40002020ADF8000018208DF8030069460B48BF
:104A5000FCF7E0FF4020ADF8000069460748FCF78E
:104A6000D9FF8020ADF8000069460448FCF7D2FF6A
:104A700010210248FDF7ADF808BD00000008014014
:104A800000B585B001210803FFF7C2F80020ADF89A
:104A900000004FF48270ADF802000020ADF8040071
:104AA0000220ADF806000120ADF808004002ADF884
:104AB0000A000820ADF80C000020ADF80E00072019
:104AC000ADF8100069460448FFF7F6FA01210248E4
:104AD000FFF7D8FA05B000BD0030014070B50546BB
:104AE0000C46164600F0F8F810211548FDF76FF84F
:104AF000022000F08BF8C4F3074000F087F8C4F3FD
:104B0000072000F083F8E0B200F080F8B6F5807F6F
:104B100004DD4FF480760BA000F0EEF803E0287877
:104B200000F074F86D1C301EA6F101018EB2F6D1B2
:104B300010210348FDF74DF800F0B4F870BD0000F7
:104B4000000801403C3C2D464C4153482D455252F3
:104B50004F522D3E3E205350495F464C4153485FD3
:104B600050616765577269746520746F6F206C615E
:104B7000726765210A0000002DE9F041002400253C
:104B80000026002710210F48FDF721F89F2000F094
:104B90003DF8FF2000F03AF80546FF2000F036F817
:104BA0000646FF2000F032F8074610210548FDF7C1
:104BB00010F8280440EA062040EA07042046BDE831
:104BC000F08100000008014010B5044600F084F8B0
:104BD00000F068F810210C48FCF7F9FF202000F0E5
:104BE00015F8C4F3074000F011F8C4F3072000F0F3
:104BF0000DF8E0B200F00AF810210348FCF7E9FFD5
:104C000000F050F810BD00000008014010B5044647
:104C10004FF48050194908600AE018490868411E9D
:104C2000164A116020B90020FFF764FAC0B210BD27
:104C300002211348FFF732FA0028EED0214610482F
:104C4000FFF738FA4FF480500C4908600AE00B492E
:104C50000868411E094A116020B90120FFF74AFA8D
:104C6000C0B2E4E701210648FFF718FA0028EED0A9
:104C70000348FFF71CFAC0B2D9E70000A0000020EB
:104C80000030014010B510210548FCF7A0FFAB2013
:104C9000FFF7BCFF10210248FCF79BFF10BD00008E
:104CA0000008014010B5002410210A48FCF78FFFCE
:104CB0000520FFF7ABFF00BFFF20FFF7A7FF04466B
:104CC00004F001000028F7D110210248FCF781FF11
:104CD00010BD00000008014010B510210548FCF788
:104CE00076FF0620FFF792FF10210248FCF771FFC4
:104CF00010BD0000000801400FB4054B10B503A91A
:104D0000044A029800F018F810BC5DF814FB00008B
:104D1000716300087002002002E008C8121F08C179
:104D2000002AFAD170477047002001E001C1121F2C
:104D3000002AFBD1704700002DE9FF4F8BB09A4647
:104D40000F460546002606E025280BD052460D9951
:104D500090476D1C761C28780028F5D10FB030469E
:104D6000BDE8F08F0024A0460122604900E0044322
:104D700015F8013F203B02FA03F00842F7D12878EA
:104D80002E2817D115F8010F44F004042A280ED05C
:104D90006FF02F022878A0F1300109290AD808EB1A
:104DA000880102EB410100EB01086D1CF2E757F8A6
:104DB000048B6D1C287869283ED006DC0028CDD0F5
:104DC00063280BD0642804D136E0732810D07528EE
:104DD0004BD052460D999047761C85E017F8040B8E
:104DE0008DF8000000208DF80100E946012003E065
:104DF00057F8049B4FF0FF3061074FF0000401D4D7
:104E00000AE0641C44450DDA8442FADB19F8041008
:104E10000029F6D106E0641C8442FCDB19F804107A
:104E20000029F8D1264404E019F8010B52460D99E7
:104E30009047641EF8D257E001CF4FF00A0B0028CC
:104E400002DA40422D2102E0210504D52B218DF804
:104E50002410012103E0E10705D02021F7E70DF13F
:104E6000200908910CE00021F9E701CF4FF00A0B6F
:104E7000F9E75946FBF7B1FB01F1300209F8012DC2
:104E80000028F6D1ADEB090000F1200B600701D43A
:104E90004FF00108D84502DDA8EB0B0000E0002030
:104EA0008046002406E009A85246005D0D9990470F
:104EB000641C761C08988442F5DB04E030205246DE
:104EC0000D999047761CB8F10001A8F10108F5DCB6
:104ED00005E019F8010B52460D999047761CBBF17D
:104EE0000001ABF1010BF4DC6D1C34E70928010073
:104EF0002DE9F0410446884600202071401E606381
:104F00004146204601F0CAFD10B10420BDE8F08101
:104F100004F2362001F089FB074694F83850EB2D57
:104F200003D0E92D01D0E82D43D14AF65520874220
:104F300008D1082223A104F18A00FBF753F908B92C
:104F40000020E3E704F1430001F06FFB0646452033
:104F5000055D701E304060BBB6F5007F29DBB6F5FD
:104F6000805F26DC2DB3681E284010BB04F146008C
:104F700001F05BFBE8B14820005D401E012818D815
:104F800004F1490001F051FB98B104F14B0001F02C
:104F90004CFB802806DA04F1580001F03AFBB0F52A
:104FA000803F06D304F14E0001F03FFB08B1002022
:104FB000ACE74AF65520874201D10220A6E703203C
:104FC000A4E70000464154333220202000000000B6
:104FD0000246891ED069801E884201D80020704791
:104FE0005389106B03FB0100F9E700002DE9F0473E
:104FF00080460C4604F11A0001F017FB10B10020A6
:10500000BDE8F087207800F03F00401E00EB8001F3
:1050100001EBC0054FF00109002621E01849895D28
:10502000081901F002FB0746B9F1000F11D0FF2D5E
:105030000BD8384601F0A4F8824629466D1C38F892
:10504000110001F09DF8824501D00020D8E7B94653
:1050500005E04FF6FF70874201D00020D0E7761CB4
:105060000D2EDBD3207800F0400038B1B9F1000FED
:1050700004D038F8150008B10020C1E70120BFE7CF
:10508000287000082DE9F04782468846DAF800408B
:10509000B8F1000F06D1676917B1E069B84215D8B9
:1050A000012713E04146504601F0DEF90546022D86
:1050B00002D20120BDE8F087681C08B92846F9E74C
:1050C000E069A84201D92846F4E74746A06908B933
:1050D0000020EFE70026474518D17E1CE069B0426A
:1050E00000D802263146504601F0BEF90546012D92
:1050F00001D0681C08B92846DCE73DB16569022D7E
:1051000003D3E069A84200D92F460026E6B93E46FF
:1051100000BF761CE069B04204D80226BE4201D925
:105120000020C7E73146504601F09EF9054605B913
:1051300009E0012D01D0681C08B92846BAE7BE4233
:10514000E7D10020B6E700BF4FF0FF3231462046DE
:1051500001F0C9FC8146B9F1000F08D1B8F1000F88
:1051600005D032464146204601F0BDFC8146B9F1EA
:10517000000F0DD16661D4E90610801E814202D86D
:10518000A069401EA061607940F00100607107E0F5
:10519000B9F1010F02D14FF0FF3000E001200646C7
:1051A000304687E72DE9F34F85B0814606980068C1
:1051B0000490D9F80000D0F810A0002500BF04A882
:1051C00001F087FE83460BF1010018B9062007B0F5
:1051D000BDE8F08FBBF5803F05D34FEA1B42284660
:1051E0006D1C2AF810201FFA8BF4202C03DB2F2CC7
:1051F00001D05C2C00D111E0802C06DA21467BA086
:10520000FAF7D8FF08B10620E1E7FF2D01D3062009
:10521000DDE728466D1C2AF81040D0E700BF202C9F
:1052200001DA042611E002E00498401C049004987E
:1052300000782F28F8D0049800785C28F4D0002655
:1052400004980078202800D204260499069801606A
:1052500008E0681E3AF81040202C02D02E2C00D016
:1052600002E06D1E002DF4D100BF00202AF81500C9
:105270000DB90620ABE7002700E07F1C3AF81700C5
:105280002028FAD01FB93AF817002E2801D146F08D
:10529000030600E06D1E25B1681E3AF810002E28A6
:1052A000F8D120220B2109F12000FAF771FF4FF00D
:1052B0000008CDF80C800820029000BF38467F1C03
:1052C0003AF8104004B966E0202C03D02E2C04D10B
:1052D000AF4202D046F00306F0E7DDE90210884253
:1052E00001D2AF4216D102980B2802D146F0030634
:1052F00051E0AF4201D046F00306AF4200D94AE088
:105300002F46082003900B2002904FEA88604FEA56
:105310001068D3E7802C0ADB46F00206204600F036
:105320002FFF4FF46A71019000F0F0FE0446FF2C4D
:1053300011DD0298401E0399884204D846F0030606
:1053400002980390BAE722120398411C039109F1D5
:1053500020010A5418E024B1214627A0FAF72AFFB9
:1053600018B15F2446F003060EE0412C03DB5A2CF3
:1053700001DC48F00208612C06DB7A2C04DC48F0E2
:105380000108A4F1200084B20398411C039109F1A3
:1053900020010C5492E700BF99F82000E52802D1C3
:1053A000052089F820000298082803D14FEA886078
:1053B0004FEA106808F00C000C2803D008F0030036
:1053C000032801D146F0020606F0020048B908F0B1
:1053D000010008B146F0100608F0040008B146F0DC
:1053E00008062B2000F809600020F0E62A3A3C3E2F
:1053F0007C223F7F000000002B2C3B3D5B5D0000CA
:1054000001460B48007888420FDC09484078884202
:1054100001DB0120704706488078884205DC04489B
:10542000C078884201DB0120F4E70020F2E70000A9
:1054300035700008014610480079884219DC0E4892
:105440004079884201DB012070470B48807988420F
:1054500005DC0948C079884201DB0120F4E70648F1
:10546000007A884205DC0448407A884201DB01204A
:10547000EAE70020E8E70000357000082DE9F04178
:1054800004460E46D4F800800021204600F0E3F9DF
:105490000546EDB9002700BF4046A16901F0FEFABC
:1054A000054605B113E0E0690078E52802D0E0691F
:1054B000007820B9781C0746B04201D107E00027E8
:1054C0000121204600F0B7F80546002DE4D000BFCA
:1054D000042D00D107252846BDE8F0812DE9F047CD
:1054E00004468946204601F0CFFC10B10120BDE8FA
:1054F000F08749462046FFF76BFD064666634FF48A
:10550000805104F13800FAF74AFE04F13808012707
:10551000002500E03D446089A84207D972196078EF
:105520003B46414600F050FA0028F3D06089A8427B
:1055300001D00120DBE70020D9E72DE9F047044640
:10554000D4F800A00021204600F085F9064616B1E7
:105550003046BDE8F0874FF0FF08C1464FF0FF30FE
:10556000E06200BF5046A16901F098FA064606B114
:105570005EE0E06905780DB9042659E0E069C07A7B
:1055800000F03F07A771E52D04D007F0080038B1FF
:105590000F2F05D04FF0FF084FF0FF30E06240E0E2
:1055A0000F2F22D12B20005D00F0400098BB05F0AA
:1055B000400038B1E06990F80D9005F0BF05A846AD
:1055C0002069E06245450CD1E069407B484508D13F
:1055D000E169DAF81000FFF709FD10B1A8F1010048
:1055E00000E0FF2000F0FF081BE0B8F1000F05D13C
:1055F000E06901F0F2FB484500D119E02B20005D85
:1056000000F0010040B90B2204F12001E069FAF733
:10561000E9FD08B90CE004E04FF0FF084FF0FF305F
:10562000E0620021204600F006F80646002E99D0E0
:1056300000BF30468DE72DE9F041044688462668D4
:10564000206900F12007B7F5001F01D30020A061F9
:10565000A06910B90420BDE8F081B089B7FBF0F172
:1056600000FB1170002847D1A069401CA06160694F
:1056700038B93089B0EB571F3ED80020A061042014
:10568000E9E7B089B7FBF0F07189491E084098BB83
:105690002046616900F0E8FE0546012D01D8022090
:1056A000D9E7681C08B90120D5E7F069A8421DD8E0
:1056B000B8F1000F03D10020A0610420CBE7204601
:1056C0006169FFF7DFFC05460DB90720C3E7012D2F
:1056D00001D10220BFE7681C08B90120BBE72946B9
:1056E0003046FFF7FBFE08B10120B4E765612946AB
:1056F0003046FFF76DFCA0612761B089B7FBF0F180
:1057000000FB117106F138000844E0610020A2E7B7
:105710002DE9FE4F044626682B20005D00F0A00016
:1057200010B10620BDE8FE8F4FF0000901E009F13D
:105730000109306930F819000028F8D1D4E90912BC
:10574000206A8DE807009DF80B0000F0010028B3E7
:1057500040212B2001554FF001080EE043466946D9
:1057600004F12000326900F015FE2046FFF7E5FE47
:10577000054605B104E008F10108B8F1640FEDD366
:1057800000BFB8F1640F01D10720CBE7042D01D091
:105790002846C7E79DF80B102B2001559DF80B00FC
:1057A00000F0020030B109F10C000D21B0FBF1F066
:1057B000401C00E00120074639462046FFF75EFE08
:1057C00005464DBB781E071E26D02069A0EB471169
:1057D000204600F040F80546F5B904F1200001F03C
:1057E000FCFA824600BF3046A16901F057F9054630
:1057F00005B110E0FAB2E1695346306901F03CFAB4
:105800000120307100212046FFF715FF054615B92C
:10581000781E071EE7D100BFDDB93046A16901F04F
:105820003DF90546ADB92021E069FAF7B8FCE06919
:10583000216A0160616A4160218D018194F82A101A
:1058400081722B20005D00F01800E16908730120CF
:105850003071284666E72DE9F04104460E4625687A
:10586000B6F5001F02D206F01F0010B10220BDE8FD
:10587000F0812661A7681FB92878032800DBEF6A4A
:1058800047B92889B0EB561F01D80220EFE7E86A34
:10589000A0611DE06889A98900FB01F811E0394683
:1058A000204600F0E1FD0746781C08B90120DEE73C
:1058B000022F02D3E869B84201D80220D7E7A6EB4D
:1058C00008064645EBD239462846FFF781FBA06122
:1058D0006761A06908B90220C9E7A889B6FBF0F0A2
:1058E000A1690844A061A889B6FBF0F100FB116131
:1058F00005F138000844E0610020B8E710B504461F
:1059000014B1012C0AD101E0284610BDFEF7C6FFF4
:10591000FFF7B8F9012000F041F8F6E70120F4E7BD
:1059200010B5034613B1012B18D101E0204610BD7C
:10593000012904D0022906D003290BD107E04FF436
:105940002060106006E04FF48050108002E00120DB
:10595000106000BF00BF00242046E8E70420E6E70F
:105960002DE9F04106460F4614461D4616B1012E9C
:1059700011D102E04046BDE8F08104F5C0644FF665
:10598000FF7000EA053221033846FEF78DFF4FF025
:1059900000084046EFE70420EDE7000070B505463B
:1059A00015B1012D0BD100E009E0FFF7E5F805493D
:1059B000884201D1002400E00124204670BD00BFD0
:1059C0000120FBE71840EF002DE9F04106460F46A5
:1059D00014461D4616B1012E14D102E04046BDE822
:1059E000F08104F5C0642003FFF7EEF84FF6FF7076
:1059F00000EA053221033846FEF77EFF4FF000082B
:105A00004046ECE70420EAE738B50546284600F0B2
:105A1000F9FA04463CB96946284601F0E7FA04461B
:105A20000CB900202860204638BD2DE9F84F044607
:105A30000E466946204601F0D9FA8246BAF1000FB7
:105A400001D194F811A0BAF1000F02D05046BDE880
:105A5000F88FE068B04204D2207C00F0020000B968
:105A6000E668D4F814904FF00008C4F81480002EB3
:105A700072D0009840890099898900FB01F7B9F13B
:105A8000000F11D0701EB0FBF7F1A9F10100B0FBBF
:105A9000F7F0814208D3A9F10100791E88436061C3
:105AA0006069361AA56912E0A5687DB90021204613
:105AB000FFF7E8FA0546012D02D102206074C6E71F
:105AC000681C10B901206074C1E7A560A561002DB4
:105AD00042D024E0F61B606938446061207C00F00D
