:020000040800F2
:100000000004002049010008011100088D030008C8
:10001000FD100008910100087512000800000000A2
:100020000000000000000000000000002511000892
:1000300095010008000000000311000811120008DB
:100040006301000863010008630100086301000800
:1000500063010008630100086301000863010008F0
:1000600063010008630100086301000863010008E0
:1000700063010008630100086301000863010008D0
:1000800063010008630100086301000863010008C0
:1000900063010008630100086301000863010008B0
:1000A00063010008630100086301000863010008A0
:1000B0006301000863010008630100086301000890
:1000C0006301000863010008630100086301000880
:1000D0006301000863010008630100086301000870
:1000E0006301000863010008630100086301000860
:1000F0006301000863010008630100086301000850
:10010000630100086301000863010008630100083F
:10011000630100086301000863010008630100082F
:10012000630100086301000863010008630100081F
:10013000DFF810D000F01AF80048004799120008C4
:10014000AFF30080000400200648804706480047BF
:10015000FEE7FEE7FEE7FEE7FEE7FEE7FEE7FEE777
:10016000FEE7FEE71512000831010008064C074DB6
:1001700006E0E06840F0010394E807009847103477
:10018000AC42F6D3FFF7D8FF28C0000838C00008FB
:1001900000BFFEE7704700B5034603E04FF47A70F6
:1001A00000F005F8181EA3F10103F7D100BD00EB24
:1001B000C001C9004FF0E022516100219161052189
:1001C000116100BF4FF0E021096901F4803100297D
:1001D000F8D004214FF0E022116170472DE9F04181
:1001E000024600250026002000230024002791F865
:1001F00003C00CF00F0591F803C00CF0100CBCF11B
:10020000000F03D091F802C04CEA050591F800C038
:10021000BCF1000F31D0146800202BE04FF0010C2E
:100220000CFA00F3B1F800C00CEA03069E4220D19C
:1002300083004FF00F0C0CFA03F7BC4305FA03FCE4
:100240004CEA040491F803C0BCF1280F06D14FF02A
:10025000010C0CFA00FCC2F814C00AE091F803C0CB
:10026000BCF1480F05D14FF0010C0CFA00FCC2F8AC
:1002700010C0401C0828D1D31460B1F800C0BCF1F4
:10028000FF0F34DD546800202EE000F1080C4FF021
:10029000010808FA0CF3B1F800C00CEA03069E420C
:1002A00021D183004FF00F0C0CFA03F7BC4305FA81
:1002B00003FC4CEA040491F803C0BCF1280F05D1FB
:1002C00000F1080C08FA0CF8C2F8148091F803C089
:1002D000BCF1480F07D100F1080C4FF0010808FAF3
:1002E0000CF8C2F81080401C0828CED35460BDE83A
:1002F000F0810000F0B50A4600230024002100250B
:1003000000F00046B6F1004F02D11D4EF16901E048
:100310001B4E7168C0F3034583B200F44016B6F576
:10032000401F08D121F07061154E766826F0706686
:10033000134F7E6012E000F48016B6F5801F06D1E0
:10034000032606FA05F4A14341F0706106E0460D6C
:10035000360103FA06F6B14341F0706122B1460D51
:10036000360103FA06F6314300F00046B6F1004FBD
:1003700002D1034EF16101E0014E7160F0BD000059
:1003800000000140416170470161704700BFFEE716
:1003900008B50121042000F0B5FE4FF48070ADF8DF
:1003A000000014208DF8030003208DF80200694638
:1003B0000448FFF713FF4FF480710248FFF7E4FF92
:1003C00008BD0000000801402DE9F04104460D463B
:1003D00016461F462A2000F055FEA11C88B200F0E8
:1003E00042FEB11C88B200F03EFE2B2000F04AFE17
:1003F000E91C88B200F037FEF91C88B200F033FE29
:100400002C2000F03FFEBDE8F0810000FEB5142472
:1004100012253C261227012010214FF6FF724FF6BD
:10042000E073CDE90021029009A22946204600F0A0
:1004300097FB012010214FF6FF724FF4FC63CDE9CA
:100440000021029004A23946304600F089FBFEBD2F
:10045000BCCED0CB00000000D3C500002DE9FE4F7C
:100460004FF023085F2408F12D0504F10509C24669
:1004700070260AF12D0706F1050B4FF6FF704B466B
:100480002A4621460090404600F086F94FF4784015
:100490000090A9F1010083B2681E82B2A11C08F18C
:1004A000020000F09EF9102000214FF47842CDE9BF
:1004B00000210290A9F10A0081B202231A22681DCC
:1004C00000F052FD00204FF47841204ACDE9002190
:1004D0000290601F81B210231A4605F1170000F048
:1004E00007FD4FF6FF705B463A4631460090504696
:1004F00000F052F91F200090ABF1010083B2781E8A
:1005000082B2B11C0AF1020000F06BF91020002148
:100510004FF4FC62CDE900210290ABF10A0081B2F8
:1005200002234022781D00F01FFD0120102100222F
:10053000CDE900210290701F81B24FF4FC632522A7
:1005400007F1170000F092FABDE8FE8F06C0000820
:100550002DE9FE4F074688464FF01809232409F17C
:10056000200A25460AF1100B2E46202000214FF6C6
:10057000FF720223CDE9002102903A462146484607
:1005800000F0F2FC0120202100224FF6FF73CDE99C
:10059000002102903A222946504600F067FA2020B6
:1005A00000214FF6FF720223CDE90021029042465E
:1005B0003146584600F0D8FC102000214FF6FF725B
:1005C0000223CDE9002102900B2204F121010C202D
:1005D00000F0CAFC012010214FF6FF724FF61F03F6
:1005E000CDE9002102901AA204F121011C2000F0A3
:1005F000B7FA102000214FF6FF720223CDE9002147
:1006000002901A2204F121012C2000F0ADFC0120FF
:1006100010214FF6FF724FF61F03CDE90021029023
:100620000CA204F121013C2000F09AFA01201021D3
:100630004FF6FF724FF61F03CDE90021029006A28C
:1006400004F12101542000F08BFABDE8FE8F000078
:10065000D4C20000C8D50000D6DCC1F900000000FB
:100660000EB54FF6FF700A231E22032100900846A4
:1006700000F092F84FF6FF70092320220521009028
:100680001F2000F0AEF84FF4FC6009231D22052165
:100690000090084600F0A5F800204FF6FF71054ACB
:1006A0000C23CDE90021029010220121222000F02C
:1006B0001FFC0EBD6EBF000808B5044820231A4673
:1006C00003210090552000F09AFC08BD2AB70008CD
:1006D0002DE9FF4F85B081468A460020039083466E
:1006E0000798A0EB09040898A0EB0A06CDF808903B
:1006F000CDF804A0002C01DD012705E00CB900278E
:1007000002E04FF0FF376442002E02DD4FF0010897
:1007100006E016B94FF0000802E04FF0FF386642DD
:10072000B44201DD254600E03546002004901EE07D
:10073000019A91B2029A90B2129A00F01FF80398AF
:1007400020440390B3440398A84205DD0398401B5E
:100750000390029838440290AB4504DDABEB050BE7
:100760000198404401900498401C80B20490A91C58
:1007700004988842DCDB09B0BDE8F08F70B5044610
:100780000D4616462B46224629462046FFF71CFEFC
:10079000304600F068FC70BD2DE9F84305460E4672
:1007A00017469846089C33463A46314628460094F8
:1007B000FFF78EFF43462A46314628460094FFF74E
:1007C00087FF43463A46414628460094FFF780FF9C
:1007D00043463A46314638460094FFF779FFBDE874
:1007E000F8832DE9F04706460F4614461D46DDF80E
:1007F00020A0681E83B2601E82B239463046FFF7E1
:10080000E3FDB8460EE0B14606E0504600F02BFC92
:1008100009F101001FFA80F9A145F6DB08F101009A
:100820001FFA80F8A845EEDBBDE8F08708B5012186
:10083000092000F067FC01210B48FFF75BFD4FF436
:100840007C70ADF8000003208DF8020010208DF8B8
:10085000030069460548FFF7C1FC4FF47C7103486B
:10086000FFF792FD08BD000000023000000C0140BF
:1008700010B5FFF7DBFF40217B48FFF783FD6420C5
:10088000FFF789FC40217848FFF77EFD6420FFF7E1
:1008900082FC4FF400717448FFF776FD6420FFF787
:1008A0007AFC112000F0EEFB7820FFF774FCB120F9
:1008B00000F0E8FB022000F0DFFB352000F0DCFB5D
:1008C000362000F0D9FBB22000F0DCFB022000F063
:1008D000D3FB352000F0D0FB362000F0CDFBB32059
:1008E00000F0D0FB022000F0C7FB352000F0C4FB75
:1008F000362000F0C1FB022000F0BEFB352000F0E6
:10090000BBFB362000F0B8FBB42000F0BBFB03209B
:1009100000F0B2FBC02000F0B5FBA22000F0ACFB61
:10092000022000F0A9FB842000F0A6FBC12000F00B
:10093000A9FBC52000F0A0FBC22000F0A3FB0D2006
:1009400000F09AFB002000F097FBC32000F09AFB18
:100950008D2000F091FB2A2000F08EFBC42000F0D7
:1009600091FB8D2000F088FBEE2000F085FBC52078
:1009700000F088FB0A2000F07FFB362000F082FBAD
:10098000C82000F079FBE02000F07CFB122000F092
:1009900073FB1C2000F070FB102000F06DFB182092
:1009A00000F06AFB332000F067FB2C2000F064FBB2
:1009B000252000F061FB282000F05EFB282000F0DD
:1009C0005BFB272000F058FB2F2000F055FB3C205C
:1009D00000F052FB002000F04FFB032000F04CFB26
:1009E000032000F049FB102000F046FBE12000F05E
:1009F00049FB122000F040FB1C2000F03DFB1020C2
:100A000000F03AFB182000F037FB2D2000F034FBFB
:100A1000282000F031FB232000F02EFB282000F0DE
:100A20002BFB282000F028FB262000F025FB2F20A0
:100A300000F022FB3B2000F01FFB002000F01CFB1D
:100A4000032000F019FB032000F016FB102000F03B
:100A500013FB3A2000F016FB052000F00DFB2920C7
:100A600000F010FB10BD0000000C01402DE9FF4F0D
:100A700083B005468A461746119CAB46204604EBD8
:100A8000D071C1F347063046F11706EB5171C9101A
:100A9000614389B20191A7F12000C7B20AEB0400BB
:100AA000401E83B2A819401E82B251462846FFF765
:100AB0008BFC4FF000094AE0102C06D1264800EBD1
:100AC000071010F8090002900BE0202C06D12348F3
:100AD00000EB871010F80900029002E007B0BDE8B3
:100AE000F08F4FF000082AE0129868B9012000FA50
:100AF00008F00299084018B1069800F0B4FA1AE01C
:100B0000109800F0B0FA16E0012000FA08F00299FF
:100B1000084020B151462846069AFFF72FFE681C70
:100B200085B2A5EB0B00B04205D15D460AF101008C
:100B30001FFA80FA06E008F1010000F0FF08B8F1A2
:100B4000080FD1DB00BF09F101001FFA80F90198FD
:100B50008145B1DB00BFC1E71A1300080A1900087C
:100B60002DE9FE4F8046894615469A46DDE90D4738
:100B70000C9E2AE0102C09D153462A46494640468D
:100B8000CDE90147009600F025F819E0182C09D1AD
:100B900053462A4649464046CDE90147009600F0B3
:100BA0009BF80DE0202C09D153462A464946404681
:100BB000CDE90147009600F019F901E0BDE8FE8F8C
:100BC000AD1C08EB04001FFA80F828780028D1D16A
:100BD00000BFF3E72DE9FE4F0646894692469B4645
:100BE0000D9C00962046E11704EB5171C91061433A
:100BF00089B2019112200290002565E005EB0510F5
:100C0000344911F810009AF80010884259D105EBC8
:100C10000510304901EB400040789AF801108842F5
:100C20004FD109EB0400401E83B23019401E82B23E
:100C300049463046FFF7C8FB00273FE04FF0000869
:100C400036E00E9898B905EB0510224901EB4000FB
:100C5000801CC05D012101FA08F1084018B1584616
:100C600000F001FA20E00C9800F0FDF91CE005EB23
:100C70000510184901EB4000801CC05D012101FAFC
:100C800008F1084020B15A4649463046FFF776FD44
:100C9000701C86B20098301AA04205D1009E09F15E
:100CA00001001FFA80F906E008F1010000F0FF08DA
:100CB000B8F1080FC5DB00BF781CC7B201988742A6
:100CC000BCDB00BF681C85B20298854296DBBDE89C
:100CD000FE8F0000CA3000082DE9FE4F0646894607
:100CE00092469B460D9C00962046E11704EB5171FD
:100CF000C910614389B201910520029000256DE081
:100D000005EB850000EB4510374911F810009AF803
:100D1000001088425FD105EB850000EB4510324999
:100D200001EB400040789AF80110884253D109EB5A
:100D30000400401E83B23019401E82B2494630463C
:100D4000FFF742FB002743E04FF000083AE00E981F
:100D5000A8B905EB850000EB4510234901EB4000E5
:100D6000801CC05D012101FA08F1084018B1584605
:100D700000F079F922E00C9800F075F91EE005EB1F
:100D8000850000EB4510184901EB4000801CC05D58
:100D9000012101FA08F1084020B15A46494630467F
:100DA000FFF7ECFC701C86B20098301AA04205D107
:100DB000009E09F101001FFA80F906E008F1010028
:100DC00000F0FF08B8F1080FC1DB00BF781CC7B204
:100DD00001988742B8DB00BF681C85B20298854243
:100DE0008EDBBDE8FE8F00002E3300082DE9FE4F9C
:100DF0000646894692469B460D9C00962046E11782
:100E000004EB5171C910614389B201910520029030
:100E1000002565E005EB8510344911F810009AF8BB
:100E20000010884259D105EB8510304901EB400094
:100E300040789AF8011088424FD109EB0400401E17
:100E400083B23019401E82B249463046FFF7BCFAE1
:100E500000273FE04FF0000836E00E9898B905EB08
:100E60008510224901EB4000801CC05D012101FA80
:100E700008F1084018B1584600F0F5F820E00C9849
:100E800000F0F1F81CE005EB8510184901EB40007B
:100E9000801CC05D012101FA08F1084020B15A46CA
:100EA00049463046FFF76AFC701C86B20098301A3B
:100EB000A04205D1009E09F101001FFA80F906E069
:100EC00008F1010000F0FF08B8F1080FC5DB00BF12
:100ED000781CC7B201988742BCDB00BF681C85B292
:100EE0000298854296DBBDE8FE8F0000A034000822
:100EF0002DE9FC5F8046894614461D46DDE90CABB2
:100F00000020009009EB0500401E83B208EB0400AE
:100F1000401E82B249464046FFF756FA04FB05F0F0
:100F2000C11700EB5171C1F3CF010191002616E00A
:100F30001AF80600009000270DE00120B840009943
:100F4000084018B1584600F08EF802E00E9800F004
:100F50008AF8781C87B2082FEFDB701C86B20198E4
:100F60008642E5DBBDE8FC9F2DE9FF4F85B00746D3
:100F700091461D46DDE913A600200490304606EB9D
:100F8000D071C1F3470B002434E0281B401EC1B2CE
:100F90000A2000F0B7F9B9FBF0F00A21B0FBF1F23A
:100FA00001FB12080498A0B9681EA04211DDB8F137
:100FB000000F0CD1002004FB0B71CDE900A60290BC
:100FC00088B22022129B0699FFF750FD10E0012005
:100FD0000490002008F13001CAB204FB0B71CDE986
:100FE00000A6029088B2129B0699FFF73FFD00BF52
:100FF000601CC4B2AC42C8DB09B0BDE8F08F2DE97B
:10100000F05F0746884615461E46DDF82890002406
:1010100008EB0600401E83B27819401E82B241469A
:101020003846FFF7D1F9A24619E04FF0000B10E067
:1010300019F8140000F020F8012101EB440119F81F
:10104000010000F019F8601C84B20BF101001FFAD6
:1010500080FBB345ECDB0AF101001FFA80FAAA45D8
:10106000E3DBBDE8F09F10B50446201200F01AF84B
:10107000E0B200F017F810BD10B50446204600F0AD
:1010800011F810BD10B5044680210548FFF77AF924
:10109000204600F007F880210148FFF775F910BDE0
:1010A000000C014070B504464FF480711248FFF700
:1010B00069F9002517E010210F48FFF763F904F0E4
:1010C000800020B120210C48FFF75EF903E02021C9
:1010D0000948FFF757F910210748FFF755F960064F
:1010E000040E681CC5B2082DE5DB4FF48071024880
:1010F000FFF74AF970BD0000000C014000BFFEE799
:101100007047704729B1064A92690243044B9A61BD
:1011100004E0034A92698243014B9A6170470000E0
:1011200000100240704710B500F002F810BD00003A
:101130000CB50020019000903348006840F48030E6
:101140003149086000BF3048006800F4003000906A
:101150000198401C0190009818B90198B0F5A06F53
:10116000F1D12948006800F4003010B1012000904E
:1011700001E0002000900098012843D12348006836
:1011800040F01000214908600846006820F0030084
:1011900008600846006840F0020008601A4840688D
:1011A000194948600846406848600846406840F46D
:1011B000806048600846406820F47C10486008461B
:1011C000406840F4E81048600846006840F08070CD
:1011D000086000BF0C48006800F000700028F9D0DB
:1011E0000948406820F00300074948600846406805
:1011F00040F00200486000BF0348406800F00C0067
:101200000828F9D10CBD0000001002400020024067
:101210007047000010B51348006840F00100114904
:10122000086008464068104908400E494860084672
:1012300000680E4908400B4908600846006820F421
:10124000802008600846406820F4FE0048604FF4A3
:101250001F008860FFF767FF4FF0006004490860D7
:1012600010BD0000001002400000FFF8FFFFF6FE76
:1012700008ED00E000BFFEE702E008C8121F08C149
:10128000002AFAD170477047002001E001C1121F07
:10129000002AFBD17047000008B50A24FFF778F850
:1012A000FFF7E6FA002080231A4601460090FFF778
:1012B00098FAFFF7D5F9FFF7FFF9FFF7A7F82146EE
:1012C0001420FFF745F9FFF7C9F817E04FF48071D4
:1012D0000B48FFF757F84FF4FA70FEF75CFF4FF436
:1012E00080710748FFF750F84FF4FA70FEF753FF8C
:1012F000601CC4B221461420FFF72AF9E6E700007B
:101300000008014010B50246012000E050430B1ECA
:10131000A1F10104E1B2F9D110BD0000000000000C
:1013200000000000000000000000000000080808A5
:101330000808080800001818000000486C24120073
:101340000000000000000000000000000024242431
:101350007F1212127F12121200000000081C2A2AAB
:101360000A0C1828282A2A1C080800000022251523
:1013700015152A585454542200000000000C121273
:10138000120A76252911916E00000006060403005A
:1013900000000000000000000000004020101008C5
:1013A000080808080810102040000002040808106F
:1013B00010101010100808040200000000000808B7
:1013C0006B1C1C6B080800000000000000000808EF
:1013D00008087F080808080000000000000000005E
:1013E00000000000000006060403000000000000EA
:1013F0000000FE00000000000000000000000000EF
:1014000000000000000006060000000080404020B0
:1014100020101008080404020200000000182442F2
:1014200042424242424224180000000000080E08D6
:10143000080808080808083E00000000003C424276
:10144000422020100804427E00000000003C42427E
:10145000201820404042221C0000000000203028BC
:10146000242422227E20207800000000007E020238
:10147000021A26404042221C0000000000382402CC
:10148000021A26424242241800000000007E222256
:10149000101008080808080800000000003C42423C
:1014A000422418244242423C00000000001824421A
:1014B000424264584040241C00000000000000002C
:1014C00018180000000018180000000000000000BC
:1014D0000008000000000008080400000040201080
:1014E0000804020408102040000000000000000072
:1014F0007F0000007F0000000000000000020408E0
:10150000102040201008040200000000003C42426D
:10151000464020101000181800000000001C225A3D
:10152000555555552D42221C000000000008081892
:101530001414243C224242E700000000001F222233
:10154000221E22424242221F00000000007C424232
:10155000010101010142221C00000000001F224283
:10156000424242424242221F00000000003F42121B
:10157000121E12120242423F00000000003F4212BF
:10158000121E12120202020700000000003C22227A
:10159000010101712122221C0000000000E74242EB
:1015A00042427E42424242E700000000003E0808FC
:1015B000080808080808083E00000000007C101019
:1015C0001010101010101010110F000000772212D0
:1015D0000A0E0A12122222770000000000070202FF
:1015E000020202020202427F00000000007736364B
:1015F00036362A2A2A2A2A6B0000000000E34646D3
:101600004A4A52525262624700000000001C2241C6
:10161000414141414141221C00000000003F424243
:1016200042423E020202020700000000001C22416A
:10163000414141414D53321C60000000003F424295
:10164000423E1212222242C700000000007C4242A9
:10165000020418204042423E00000000007F49087A
:10166000080808080808081C0000000000E74242BB
:10167000424242424242423C0000000000E74242F5
:10168000222424141418080800000000006B4949A3
:1016900049495555362222220000000000E7422425
:1016A00024181818242442E70000000000772222A2
:1016B000141408080808081C00000000007E2120FF
:1016C000101008040442423F00000078080808088F
:1016D0000808080808080808780000000202040446
:1016E00008080810102020204040001E1010101084
:1016F00010101010101010101E00003844000000D0
:1017000000000000000000000000000000000000D9
:10171000000000000000000000FF000608000000BC
:1017200000000000000000000000000000000000B9
:10173000003C4278444242FC0000000000030202E8
:10174000021A26424242261A000000000000000051
:1017500000384402020244380000000000604040AB
:1017600040784442424264D800000000000000007B
:10177000003C427E0202423C0000000000F088086B
:10178000087E08080808083E00000000000000006D
:10179000007C22221C023C42423C00000003020268
:1017A000023A4642424242E700000000000C0C00B0
:1017B000000E08080808083E000000000030300055
:1017C0000038202020202020221E000000030202DA
:1017D0000272120A1612227700000000000E08089A
:1017E000080808080808083E000000000000000083
:1017F000007F9292929292B70000000000000000D9
:10180000003B4642424242E7000000000000000068
:10181000003C42424242423C000000000000000006
:10182000001B26424242221E020700000000000068
:10183000007844424242447840E00000000000004A
:1018400000774C040404041F0000000000000000A6
:10185000007C42023C40423E0000000000000008C4
:10186000083E0808080808300000000000000000DA
:1018700000634242424262DC0000000000000000BF
:1018800000E74224241408080000000000000000C3
:1018900000EB4949555522220000000000000000DD
:1018A000007624181818246E0000000000000000C4
:1018B00000E7422424141808080700000000000074
:1018C000007E22100808447E000000C02020202056
:1018D0002010202020202020C000101010101010F8
:1018E0001010101010101010101000060808080832
:1018F000081008080808080806000C32C20000009A
:1019000000000000000000000000000000000000D7
:1019100000000000000000000000000000000000C7
:1019200000000000000000000000000000000000B7
:1019300000000000000000000000000000000000A7
:101940000000000000000000000000000000000097
:1019500000000000C001C001C001C001C001C00101
:10196000C001800080008000800080008000800036
:1019700000000000000000008001C003C0038001DF
:101980000000000000000000000000000000000057
:10199000E01CE01CF01E700E3807180308018400DC
:1019A0000000000000000000000000000000000037
:1019B0000000000000000000000000000000000027
:1019C0000000000000000000000000000000000017
:1019D0000000000000002010201020102010201017
:1019E000FE7FFE7F1008100810081008100810086D
:1019F0001008FE7FFE7F0804080408040804080499
:101A000000000000000000000000000000000000D6
:101A1000000000010001C0076019103118311839A9
:101A2000183938017001E001C0038007000F001D64
:101A3000003900311C311C310C310C11180DE0073C
:101A40000001000100010000000000000000000093
:101A50000000000000001C1036186308630C6304CB
:101A60006304630263026301361D9C378022806336
:101A70004063406320632063306310221836081CE3
:101A80000000000000000000000000000000000056
:101A9000000000000000F00098018C018C018C0116
:101AA0008C018C00CC007800183E1C0836083208E7
:101AB00063046304C304C303834306438E26781C74
:101AC0000000000000000000000000000000000016
:101AD0001C003C003C003000300010000C000600F0
:101AE00000000000000000000000000000000000F6
:101AF00000000000000000000000000000000000E6
:101B000000000000000000000000000000000000D5
:101B10000040002000100008000C00040006000334
:101B200000030003800180018001800180018001A9
:101B30008001800100030003000300060006000C82
:101B4000000800100020004000000000000000001D
:101B50000200040008001000300020006000C000F7
:101B6000C000C000800180018001800180018001EF
:101B700080018001C000C000C00060006000300033
:101B80001000080004000200000000000000000037
:101B9000000000000000000000000001800380033E
:101BA00000011C713C79783DC0070001C007783DF9
:101BB0003C791C710001800380038001000000005B
:101BC0000000000000000000000000000000000015
:101BD0000000000000000000000000000001000103
:101BE00000010001000100010001FC7F0001000173
:101BF00000010001000100010001000000000000E0
:101C000000000000000000000000000000000000D4
:101C100000000000000000000000000000000000C4
:101C200000000000000000000000000000000000B4
:101C3000000000000000000000001C003C003C0010
:101C40003000300010000C00060000000000000012
:101C50000000000000000000000000000000000084
:101C600000000000000000000000FE7F00000000F7
:101C70000000000000000000000000000000000064
:101C80000000000000000000000000000000000054
:101C90000000000000000000000000000000000044
:101CA0000000000000000000000000000000000034
:101CB000000000000000000018003C003C0018007C
:101CC0000000000000000000000000000000000014
:101CD0000040006000200030001000180008000CD8
:101CE0000004000600020003000180018000C00023
:101CF00040006000200030001000180008000C00B8
:101D000004000600020000000000000000000000C7
:101D1000000000000000C007600C301818301830B8
:101D200018200C600C600C600C600C600C600C6087
:101D30000C600C601820183018303018600CC00788
:101D40000000000000000000000000000000000093
:101D500000000000000000018001F8018001800106
:101D6000800180018001800180018001800180016B
:101D7000800180018001800180018001C003F81F83
:101D80000000000000000000000000000000000053
:101D9000000000000000E007101C081804300430A8
:101DA0000C300C3000300018000800040002000164
:101DB000800040002020102008200430FC1FFC1F61
:101DC0000000000000000000000000000000000013
:101DD000000000000000E003180E0C0C0C180C189A
:101DE0000C180018000C0006C003000E00180010AC
:101DF000003000300C300C300C100C18180CE003C4
:101E000000000000000000000000000000000000D2
:101E1000000000000000000C000E000E000F800EFD
:101E2000800E400E600E200E100E100E080E040ED6
:101E3000040EFE7F000E000E000E000E000E000EBF
:101E4000C07F000000000000000000000000000053
:101E5000000000000000F03FF03F100010001000F4
:101E600008000800C807280C1818081000300030B7
:101E7000003000300C300C3004180418080CF0034B
:101E80000000000000000000000000000000000052
:101E9000000000000000800FC0102030103018003B
:101EA000180008000C008C0F6C183C301C600C6093
:101EB0000C600C600C601860182030306018C0078F
:101EC0000000000000000000000000000000000012
:101ED000000000000000F83FF83F1C100C08040848
:101EE000040400040002000200010001000180005F
:101EF00080008000C000C000C000C000C000C00062
:101F000000000000000000000000000000000000D1
:101F1000000000000000E007300C18180C300C30F6
:101F20000C301C3038187008E007B007180E0C1C75
:101F3000063806300630063006300C18180CE00360
:101F40000000000000000000000000000000000091
:101F5000000000000000E00318040C080C18061034
:101F6000063006300630063006380C3C1836F031A4
:101F700000300018001800180C0C0C060C03F001BF
:101F80000000000000000000000000000000000051
:101F90000000000000000000000000000000000041
:101FA000000000008001C003C003800100000000A9
:101FB00000000000000000008001C003C003800199
:101FC0000000000000000000000000000000000011
:101FD0000000000000000000000000000000000001
:101FE00000000000C000C000000000000000000071
:101FF000000000000000000000000000C000C00061
:102000008000800040004000000000000000000050
:10201000000000000020001000080004000600037B
:102020008001C0006000300018000C001800300073
:102030006000C000800100030006000400080010DA
:102040000020000000000000000000000000000070
:102050000000000000000000000000000000000080
:1020600000000000FE7F00000000000000000000F3
:10207000FE7F0000000000000000000000000000E3
:102080000000000000000000000000000000000050
:102090000000000004000800100020006000C000E4
:1020A000800100030006000C001800300018000C2E
:1020B000000600038001C00060002000100008003E
:1020C000040000000000000000000000000000000C
:1020D00000000000C0073018083008600C601C6069
:1020E0001C601C600030001C0006000180008000A5
:1020F00080008000000000008001C003C003800158
:1021000000000000000000000000000000000000CF
:10211000000000000000C0076018103018200C2FCD
:102120008C4D864CC64CC64C664C6644664466264E
:1021300066266615CC1C0C40082018303018C007E5
:10214000000000000000000000000000000000008F
:10215000000000000001C001C001C0014001600397
:102160002003200320033006100610061006F80F87
:10217000080C080C080C0C0C0418041806181F7C1A
:10218000000000000000000000000000000000004F
:10219000000000000000FE07181C18381830183026
:1021A000183018301818180CF8071818183018209C
:1021B0001860186018601860186018301818FE0F42
:1021C000000000000000000000000000000000000F
:1021D000000000000000C0276038103018200C40BC
:1021E0000C4004000600060006000600060006007B
:1021F000060006000C400C400C2018303018C007B8
:1022000000000000000000000000000000000000CE
:10221000000000000000FE03180E181818301830D7
:10222000183018601860186018601860186018601E
:10223000186018601830183018101818180EFE039F
:10224000000000000000000000000000000000008E
:10225000000000000000FE3F1830182018601840F1
:10226000180018081808180CF80F180C1808180887
:102270001800180018001840184018201830FE3FA9
:10228000000000000000000000000000000000004E
:10229000000000000000FE7F1870184018C0188071
:1022A0001800181018101818F81F181818101810FF
:1022B00018001800180018001800180018007E00F8
:1022C000000000000000000000000000000000000E
:1022D000000000000000C013701C101018100C202B
:1022E0000C2004000600060006000600060006FC9E
:1022F000063006300C300C30183018303008C0076B
:1023000000000000000000000000000000000000CD
:102310000000000000003F7E0C180C180C180C1870
:102320000C180C180C180C180C18FC1F0C180C1896
:102330000C180C180C180C180C180C180C183F7EE4
:10234000000000000000000000000000000000008D
:10235000000000000000F81F800180018001800162
:102360008001800180018001800180018001800165
:102370008001800180018001800180018001F81FBF
:10238000000000000000000000000000000000004D
:10239000000000000000E07F0006000600060006C6
:1023A00000060006000600060006000600060006FD
:1023B00000060006000600060006000600060006ED
:1023C00000060E060E038E01FC0000000000000057
:1023D0000000000000007E7C181818081804180679
:1023E0001802180198019801D801B803380318079A
:1023F0001806180E180C181C1818183018307EFC07
:1024000000000000000000000000000000000000CC
:102410000000000000007E001800180018001800DE
:1024200018001800180018001800180018001800EC
:102430001800180018001840184018201830FE3FE7
:10244000000000000000000000000000000000008C
:102450000000000000001FF81C381C381C381C3C11
:102460003434343434343436743264326432643262
:102470006431C431C431C431C430C43084309FFCB1
:10248000000000000000000000000000000000004C
:102490000000000000001F7C1C103C1034103410A1
:1024A00074106410E410C410C41184118413041354
:1024B00004170416041E041C041C041C04181F1812
:1024C000000000000000000000000000000000000C
:1024D000000000000000C003300C181808100C3079
:1024E0000C300660066006600660066006600660E6
:1024F000066006600C200C3008101818300CC00361
:1025000000000000000000000000000000000000CB
:10251000000000000000FE0F181818301860186046
:1025200018601860186018301818F80F1800180094
:1025300018001800180018001800180018007E0075
:10254000000000000000000000000000000000008B
:10255000000000000000C003300C18180C100C30F4
:102560000C20066006600660066006600660066075
:1025700006600660E4612C331C321816300EC0076A
:10258000004C007C0038000000000000000000004B
:10259000000000000000FE07181C18381830183022
:1025A000183018301818180CF80798031803180773
:1025B00018061806180E180C180C181C18187E7817
:1025C000000000000000000000000000000000000B
:1025D000000000000000E027303818300C200C20EC
:1025E0000C000C0018007800E003800F001E00387B
:1025F0000070006004600460086018303818C80F6C
:1026000000000000000000000000000000000000CA
:10261000000000000000FC3F8C2184618241824167
:1026200080018001800180018001800180018001A2
:102630008001800180018001800180018001E0072C
:10264000000000000000000000000000000000008A
:102650000000000000003F7C0C100C100C100C104F
:102660000C100C100C100C100C100C100C100C108A
:102670000C100C100C100C100C1008083804E0039F
:10268000000000000000000000000000000000004A
:102690000000000000003EF818201820182030101C
:1026A000301030103010600860086008E00CC00482
:1026B000C004C00480038003800380030001000184
:1026C000000000000000000000000000000000000A
:1026D000000000000000DFF38661862186218C2146
:1026E0000C218C238C138C138C134C1358125816FA
:1026F000580E380E380E380E300C1004100410042A
:1027000000000000000000000000000000000000C9
:102710000000000000007E3E180838083004300435
:1027200070026002E001C001C0018001800340032B
:10273000400720062006100C100C081808183E7CD4
:102740000000000000000000000000000000000089
:102750000000000000007E7C1C10181018083008D3
:10276000300C700460046002C002C002C00180012D
:102770008001800180018001800180018001E007EB
:102780000000000000000000000000000000000049
:10279000000000000000F83F18180818040C040E90
:1027A00000060007000380038001C001C000E000B4
:1027B000600070003000382018201C100C18FE1F1C
:1027C0000000000000000000000000000000000009
:1027D000C03F40004000400040004000400040003A
:1027E00040004000400040004000400040004000E9
:1027F00040004000400040004000400040004000D9
:1028000040004000C03F0000000000000000000049
:102810000000000008001800180010003000200020
:10282000600060004000C000800080018001000165
:1028300000030002000600060004000C0008001857
:102840000018001000300020000000000000000010
:10285000FC0300020002000200020002000200026B
:102860000002000200020002000200020002000258
:102870000002000200020002000200020002000248
:1028800000020002FC030000000000000000000045
:102890008007C006200810100000000000000000A3
:1028A0000000000000000000000000000000000028
:1028B0000000000000000000000000000000000018
:1028C0000000000000000000000000000000000008
:1028D00000000000000000000000000000000000F8
:1028E00000000000000000000000000000000000E8
:1028F00000000000000000000000000000000000D8
:102900000000000000000000FFFF000000000000C9
:102910007800C0000001000000000000000000007E
:1029200000000000000000000000000000000000A7
:102930000000000000000000000000000000000097
:102940000000000000000000000000000000000087
:102950000000000000000000000000000000000077
:1029600000000000F00318060C0C0C0C000C800F8B
:10297000700C1C0C0C0C060C060C064C0C4FF8389A
:102980000000000000000000000000000000000047
:102990000000000010001E001800180018001800A9
:1029A00018001800180FD8183830386018601860F0
:1029B0001860186018601860182038307818C80738
:1029C0000000000000000000000000000000000007
:1029D00000000000000000000000000000000000F7
:1029E00000000000C007700C181818180C180C0014
:1029F0000C000C000C000C20182018103008C00728
:102A000000000000000000000000000000000000C6
:102A1000000000000010001E001800180018001828
:102A200000180018E01B301C181818180C180C1887
:102A30000C180C180C180C180818181C307AE0091F
:102A40000000000000000000000000000000000086
:102A50000000000000000000000000000000000076
:102A600000000000C007300C181808100C300C30A3
:102A7000FC3F0C000C000C00182018107018C00748
:102A80000000000000000000000000000000000046
:102A9000000000000000003E80C380C0C0C0C00035
:102AA000C000C000FC1FC000C000C000C000C000CB
:102AB000C000C000C000C000C000C000C000F80FCF
:102AC0000000000000000000000000000000000006
:102AD00000000000000000000000000000000000F6
:102AE00000000000C077306C10181818181818185B
:102AF0001018300CF00718001800F00FF03F0870A5
:102B00000C600C600C603838E00F00000000000022
:102B10000000000010001E00180018001800180027
:102B200018001800980FD81838301830183018309E
:102B300018301830183018301830183018307EFC23
:102B40000000000000000000000000000000000085
:102B500000000000000080038003800300000000EC
:102B600000000001F80180018001800180018001E6
:102B70008001800180018001800180018001F81FB7
:102B80000000000000000000000000000000000045
:102B9000000000000000003800380038000000008D
:102BA00000000010801F00180018001800180018FE
:102BB0000018001800180018001800180018001855
:102BC00000180018180C1806F003000000000000A0
:102BD0000000000010001E00180018001800180067
:102BE00018001800183E180C180618031801980150
:102BF000D801380318071806180C181C18187E7C02
:102C000000000000000000000000000000000000C4
:102C1000000000000001F8018001800180018001B6
:102C2000800180018001800180018001800180019C
:102C30008001800180018001800180018001F81FF6
:102C40000000000000000000000000000000000084
:102C50000000000000000000000000000000000074
:102C600000000800EE1C9C338C318C318C318C318F
:102C70008C318C318C318C318C318C318C31DE7BD0
:102C80000000000000000000000000000000000044
:102C90000000000000000000000000000000000034
:102CA000000010001E0FD8183830183018301830B7
:102CB00018301830183018301830183018307EFCA2
:102CC0000000000000000000000000000000000004
:102CD00000000000000000000000000000000000F4
:102CE00000000000C007701C103018300C600C6031
:102CF0000C600C600C600C60183018303018C00785
:102D000000000000000000000000000000000000C3
:102D100000000000000000000000000000000000B3
:102D2000000010009E0F58183830182018601860E6
:102D300018601860186018601830383078189807D4
:102D400018001800180018007E00000000000000A5
:102D50000000000000000000000000000000000073
:102D600000000000C023303C183818300C300C3004
:102D70000C300C300C300C3008301838303CE0335C
:102D8000003000300030003000FC00000000000087
:102D90000000000000000000000000000000000033
:102DA000000060007E3C60666061E000E000600062
:102DB0006000600060006000600060006000FE076E
:102DC0000000000000000000000000000000000003
:102DD00000000000000000000000000000000000F3
:102DE00000000000E027303818301820180070006C
:102DF000E003800F001C043004300C301C18EC0F72
:102E000000000000000000000000000000000000C2
:102E10000000000000000000000080008000800032
:102E2000C000E000FC1FC000C000C000C000C00027
:102E3000C000C000C000C000C020C0208011000F32
:102E40000000000000000000000000000000000082
:102E50000000000000000000000000000000000072
:102E6000000010201E3C1830183018301830183070
:102E700018301830183018301830183830F4E01383
:102E80000000000000000000000000000000000042
:102E90000000000000000000000000000000000032
:102EA000000000007E3C1818180838083004300470
:102EB000700260026002E001C001C001C000800039
:102EC0000000000000000000000000000000000002
:102ED00000000000000000000000000000000000F2
:102EE00000000000DFF78E630C238C238C239813E3
:102EF000981358165816700E700E700E2004200489
:102F000000000000000000000000000000000000C1
:102F100000000000000000000000000000000000B1
:102F200000000000FC3E70087004E004C002C00114
:102F30008003800340076006200C100C18183E7EAA
:102F40000000000000000000000000000000000081
:102F50000000000000000000000000000000000071
:102F6000000000007E7C1818180830083008300473
:102F700060046004C002C002C002800180018001C0
:102F80008000800080004C003C0000000000000039
:102F90000000000000000000000000000000000031
:102FA00000000000FC1F0C0C040E0406000380034C
:102FB0008001C000E0007020302038301C18FC1F59
:102FC0000000000000000000000000000000000001
:102FD00000300008000400040004000400040004A1
:102FE0000004000400040004000280010002000448
:102FF00000040004000400040004000400040004B1
:10300000000400040008003000000001000100017D
:1030100000010001000100010001000100010001A8
:103020000001000100010001000100010001000198
:103030000001000100010001000100010001000188
:10304000000100010001000100010000000000007B
:103050000C00100020002000200020002000200094
:1030600020002000200020004000800140002000BF
:103070002000200020002000200020002000200050
:103080002000200010000C00000000003800C400E8
:10309000864002610022001C0000000000000000C9
:1030A0000000000000000000000000000000000020
:1030B0000000000000000000000000000000000010
:1030C00000000000000000000000D1EE0800881F92
:1030D000080808043F0208018C7F1C492A492A4934
:1030E000894888444844284208298810B7C9000004
:1030F000FF03000200220012000A0006000A00126C
:103100000022000400040048005000600040B3CCDE
:103110001000B83F8F2088208820BF3F08000C0097
:103120009C7F2A042A04893F08040804C87F0800F9
:10313000D0C70000F80F0808F80F0808F80F800043
:103140008800F81F84008200F80F80008000FE3F96
:103150000000C6DA4400443EFE22442244227C3E63
:10316000442244227C22443E4422FF222021442146
:1031700082284110BCCE8000FF7F8000FC1F000031
:10318000F80F0808F80F1004FF7F0800FE3E8822A1
:103190008422A23E4122D0CB201040108410880807
:1031A000100810040002FF7F000020022004100815
:1031B0001010081004200220C4EA08000800F83F9C
:1031C000040104010201F81F080108010801FF7F42
:1031D00000010001000100010001D4C20000F81F3D
:1031E000081008100810F81F081008100810F81F21
:1031F000081008100410041002140108C8D50000BB
:10320000F80F08080808080808080808F80F080850
:1032100008080808080808080808F80F0808D6DC95
:103220000000FC1F84108410F41784108410FC1F0D
:103230000410E41324122412E413021002140108EF
:10324000D2BB0000000000000000000000000000F1
:10325000FF7F0000000000000000000000000000F0
:103260000000B6FE000000000000FC1F000000008F
:10327000000000000000000000000000FF7F0000D0
:1032800000000000C8FD00000000FE3F000000003C
:1032900000000000FC1F0000000000000000000013
:1032A000FF7F00000000CBC400000000FE3F222290
:1032B00022222222222222221222123C0A2006202C
:1032C0000220FE3F02200000CEE50000FE3F40004D
:1032D000400040004000FC0F200820082008200883
:1032E000100810081008FF7F0000C1F9400080009E
:1032F000000100010000FF7F000000002002200408
:10330000100810100810042002200000D3C5100976
:10331000101110110801E87F0C050C050A050905BC
:103320000805880488448844484448782800D1EE39
:1033300000000020000060000460FC0F60000660D8
:103340000201FE870060600060300060F83FF049D5
:1033500036706332702333681231688811648410C8
:1033600064421062211060101060081860861F60AF
:10337000000E200000000000B7C90000000000009F
:10338000001000FC3F0000100600100600100300B3
:10339000900100500000300000D000001003001029
:1033A0000600100400300000300000200000601013
:1033B00000C01000C01100001700003E0000000017
:1033C0000000B3CC000000000000000100E0FB1F83
:1033D0005C1010401010401010401010FEF71F60DD
:1033E0001810600810E0FC3F500301500201580023
:1033F0000148001144F83F4400014200016000010F
:1034000060002160FE7F600000000000D0C7000067
:1034100000000000E0FF07600004600004E0FF0718
:10342000600004600004E0FF072000040008004082
:103430001800601804E0FF0F30180010180008187A
:1034400002E4FF07001800001800001810FEFF3FFC
:10345000000000000000C6DA0000000000002004A8
:103460000020C43F20C430FC9F30208430208430B2
:10347000E0873F208430208430E0873020C4302033
:10348000C43F20C430FCFF30204030604230206C0C
:103490003010283008103204081C0004000000001E
:1034A000D1EE00000000000000008000000080035A
:1034B000000180C1FF03800180018001C000800104
:1034C000600080113000FC3F180080010E00800178
:1034D000070080810310C0C3FF3FC0878C19C01D47
:1034E0008C19E019C618A019C618B011631890817C
:1034F000611898C130188861180884311808820949
:103500000C0C8001060C8001030C8081000C806192
:1035100070068019C0078001800380000000000051
:103520000000B7C90000000000000000000000001B
:1035300000000100FCFF0300000003010000810304
:10354000000081010000C1000000610000003100A6
:103550000000110000000B0000000D000000390009
:103560000000E1000000C30100008303000003032A
:103570000000030000000300000006080000060829
:103580000000060800000C0800001C0800003808B5
:103590000000F0180000C01F0000001F000000180D
:1035A00000000000B3CC0000000000000000000894
:1035B0000000009E0008C087FF1FBC81010C8081B5
:1035C000010C8081010C8081010C8081010C8091B3
:1035D000010CFEBFFF0F8081010C80810100C00142
:1035E0000018C0C7FF3FC01D2000E0192000E011F7
:1035F0002000A0112000B001200090012008888147
:10360000FF1F88012000840120008201200080012A
:1036100020008001201080F1FF3F80010000800029
:10362000000000000000D0C7000000000000000003
:103630008000000180FFFF03800180018001800184
:103640008001800180FFFF018001800180018001F5
:10365000800180018001800180FFFF018081800165
:10366000008103008083010080810103C0FFFF0708
:10367000C080010060800100208081001080C101B5
:1036800088FFFF030480010000800100008001002A
:10369000008001080080011CFCFFFF3F00000000CB
:1036A0000000000000000000C6DA0000000000007A
:1036B000000040200000C0E10810C060F83FC0607A
:1036C0001818C0601918FCFF1F18C0601818C060D7
:1036D0001818C0601818C07FF81FC0601818C060A4
:1036E0001818C0601818C07F1818C0601818C0607B
:1036F0001818C060F81FC0601918FCFF1B18800064
:1037000018188011081880230C18C0E00C1860C02D
:10371000061860C00618100003180880011F04C0B6
:10372000000C002000040000000020C420C420C4BD
:1037300020C420C420E420E420E420E420E520C5C7
:1037400020C520C520C520C520A520A520A518A5D9
:1037500018A518C418C418C518C518C518C518C5A3
:1037600018C518C618C518A520C628E62907312788
:10377000396849CA41CA39693108188620A620C764
:1037800020A628E628E628E72907292731283148F6
:1037900028E628E530E53105392531243125312564
:1037A0003946396841483967396639663967396851
:1037B00049A941A949EA5A6C41A831263126312646
:1037C000394631263906310530E4290429053147C7
:1037D000398728E428E428C428E428E5312828E6A5
:1037E00028C428C328E439473126290628E628E5D5
:1037F0002905210620E6210629262927314739A84F
:103800004A093987292639A849E949E949A849C90E
:10381000392628C528C528C628C628C628C628E6A9
:1038200020C528E628E628C520A520C420C420C439
:1038300020C420C420E420E420E520E520E520C5C4
:1038400020C520E520E520C520C520C520A518C538
:1038500018C518C518E5210521262927292721067D
:1038600018E618E6212720E620A520A520C620C6B8
:1038700020C6314849EA5A6D41AA312820A6188647
:1038800020A620E620E628E729072907290731276F
:10389000290628E631053105312531253125310547
:1038A0003947396841483947396639663967416867
:1038B00051C949C951E95A6B41A8312639263926DF
:1038C000394631263906390530E4310429053126D7
:1038D000396728E528E428C428E428E5314728E6A4
:1038E00028C428C328C431273106310628E628E534
:1038F0002905210621062926292629273147398825
:1039000041C839873987398841A841A841A849E980
:10391000416728C528C528C628A528C528E628E661
:1039200028E628E628E628E620C520C420C420C4CE
:1039300020C420C420E420E520E520E520E520C5C2
:1039400020E520E620E620E520C520C520C518C5D5
:1039500018C518E520E5212629272126210621065C
:1039600018E620E6210620C620C620C620A520A5F0
:1039700018A520C6292741CA524C49EB39AA290863
:1039800020A6188520E628E7290729272907314797
:103990003147314739473126312631053105310666
:1039A000394739683948394739473966418751C8F5
:1039B0006229620861E8624A49A8392639263946EF
:1039C000394639263126392530E430E431053125B0
:1039D000396628E528E428E428C428E5314728E5A5
:1039E00028C428C428C4310728E6290628E628E682
:1039F0002905210621072927292729073147398841
:103A000039A741C841E841C941C941C849C849C964
:103A100041A828C528C528C528A528A5290628E61F
:103A200028E628E628E628E628E620C420C420C4A4
:103A300020C420C420E420E520E520E520C520E6C0
:103A400020E620E620C520C520C520C518C518C51C
:103A500018E518C518E520E518E518C518C518E6D5
:103A600018E620E620E618E618C618C518A518A519
:103A700018C518C520C5290729073148396941AA41
:103A80003148290720A620C628E6290631272926FD
:103A90003127316731473947312631063106310642
:103AA000394739673947394839673967498759E8A4
:103AB0006A2969E86A086A2A51C939473947394683
:103AC00039263105312631253104310431043125BF
:103AD000394528E428E428C428C428E5314628E5E7
:103AE00028A428C428C53127310728E628E628E677
:103AF00020E5210620E729272926290729273988B3
:103B0000398741C741C841C841C841C849C849E986
:103B1000418828C528E628C628C528C528E628E6FD
:103B200028E6290628C520C520C520C420C420C4F5
:103B300020C420C420E520E520C520E620E620E6BC
:103B400020E620E620E620E520E520E520E518C572
:103B500018C518E520E520E520E618C520E620E692
:103B600021062106210620E618C518A518A518A5C6
:103B700018A518C518C520C620E620E620A62908E5
:103B800029073168316820E620C520E52906292665
:103B900029463167396739683968396839473927BB
:103BA000396839673947394739484147518759E7B3
:103BB0005187616669C7620A51CA418839673946C7
:103BC0003126310531253925392439243104392468
:103BD000394530E428C428C428C528E5314628E5FD
:103BE00028A428C428C53127310731072907290708
:103BF0002906292721072927292629072926396760
:103C0000398741C741C841C841C849E949C84187C6
:103C100028E528C528E628C528A528C628C628E6F8
:103C200028E628E620C520C528C520A320A420C456
:103C300020C420C520C520C520E521052105210679
:103C400020E520E520E520E520E6210620E520E628
:103C500018E520E621062107210618E620E718E6E8
:103C600020E62106290720E618C618C518A518C59C
:103C700018C518C518C518C518C518C518C620C652
:103C800020E621072927212620E5210620E62926EE
:103C90003127314731473147396839683968394800
:103CA000396839683947394731663946498761A8E3
:103CB000598651A559E751C849A941674147394635
:103CC000392631053905392541254125412441252C
:103CD0004145310420C420E428C430E5392628E5D4
:103CE00020A528A428A53107310731073127290746
:103CF00029072107210620E62106212721273167F0
:103D0000398841A841A841A841C841C841A83126E5
:103D100028C528C528C528E528E528E528E520E6A2
:103D200028C528E520C520C520C520A420A420C47E
:103D300020C520E520C520E520E521052106210636
:103D4000210621062106210629062906210621062B
:103D500018E521062106212721072107210718E759
:103D600020E621072947210618C618A518A518A579
:103D700018A518A518C518C518C518C518C518C59B
:103D800018C518C520E621062106210621062906A8
:103D90003127312731473147314739483968418820
:103DA00039883968394731473146310541255187CE
:103DB00059A751C659E751A7414731063106310588
:103DC00031053105312531054166416641454125C1
:103DD0004146310520C420E428C430E5392628E5D1
:103DE00020A528C420A528E629072907290729078F
:103DF00028E621062106290621062106210631276B
:103E0000398841A841A841A841A841A8394628E4D9
:103E100020C428C528C528E528E528E628E628E6A0
:103E200028C520C520C520C520C520A420C420C485
:103E300020C520E520E520E52105210621262926AB
:103E400021262106210621062907292721072106E7
:103E500019062106210721272128212821072107CA
:103E600018E7292739CA294720E618A518C518A533
:103E700018A518A518A518C518C518C518C518C5BA
:103E800018A520E618C520E62106210629062906E0
:103E900029063127312731273147394739483968D1
:103EA00041893968396839473146312531044165DE
:103EB0004986498641864166392630E5310628E53E
:103EC00028E530E4310530E4418749A741463945CA
:103ED0003946310520C420E428C430E5392628E5D8
:103EE00020A520A420A52907290729072907290794
:103EF0002907210620E62906210620E618E62906DC
:103F00003988418841874187418841A7312520C4AC
:103F100020A420C528C528E5290628E628E6290684
:103F200028E520C520E520E520E520A420C520A522
:103F300020C520E629062106292721262127210739
:103F400021072107210621272927212721272107AA
:103F50001906212721272127212821282128212846
:103F600021072948420B318918C510A518A518C585
:103F700018A518A518C518C518C518C518C518C599
:103F800018C518C518C520E520E520E62906310624
:103F900031273127312731273127312739473968F0
:103FA0003968398841683968394731263946418747
:103FB00041884187396741873106310628E529055F
:103FC00029052904310430E4394649C841673126BE
:103FD000418728E428C420C428A430C5392628E510
:103FE00020A528C628E6290829072907290729071F
:103FF000290729272927290620E618E618E6290691
:10400000396739874188398741A8396728E420A46E
:1040100020A420C420C530E628E629062907290760
:104020002906290629272927314720A420C520C58C
:1040300020C520E620E62106210621272127212769
:104040002127212721062127212721272107210791
:1040500021272147212721282128212821482128DB
:104060002128294839CA31A918C510A518C520E644
:1040700018C518A518A518C518C518C518C418C49A
:1040800018C418C518C520E520E528E631273948A9
:104090003147312731273127312731073127312760
:1040A0003127396839683968396839483969418947
:1040B00041AA41AA416941893947290629062905AA
:1040C00029052905310428E4392651E94188314779
:1040D000398720C428C428E428A430C5392628E517
:1040E00020A520C620C7290829072907290729074D
:1040F000290721062106290620E618C618E620E52C
:1041000031263987394739673967314620C420A4B9
:1041100020A420C428C531063106310731273128B3
:104120003168316831683148314720A520C520C544
:1041300020C520E6210629272907292729272927FD
:104140002107210621072107210721072106190739
:1041500021072128212821282128212821482148F8
:1041600021482948318939CA18C6108518A520E682
:1041700020C518A518A518841084188418A418A59B
:1041800018C520C520E520C528E628E6310639688F
:104190003988312731273127312729062906312748
:1041A0003127314739683968396839683968396879
:1041B000418941AA39894189398931263106310637
:1041C000310528E5310430E4312549C849A839468C
:1041D000396728C420C420C428A528E5312628C56D
:1041E00028A428E628E72928290729072927292795
:1041F00029272927210720E620E620E620E620E5DA
:1042000020C52905290528E428E5310528C420A36F
:1042100020A320A428E6310739683968398839880D
:10422000316831273127290728E720A520C520C577
:1042300020E520E621062927290729272907210724
:10424000210721072107210721072107210721072E
:1042500021072128212821282128212821482149F6
:1042600029692968318939CA18C6108518A529060F
:1042700020A518A518A518C518A418841884188492
:10428000188418A418A420C528E628E62906312792
:1042900039483988314831273127312731273127AB
:1042A0003127312731473147314731473147396865
:1042B0003968396839893989398931272906312698
:1042C0002905310531053105394649C851E941878C
:1042D000394628C528C420C420A528E5312628C58C
:1042E00020A4290731272907290729272927294712
:1042F000292729272107210620E620E620E620C5D8
:1043000020C5290520C420C3188228E428C528C454
:1043100020A328C63969398839893988314729065F
:10432000290728E620C620C628E620C520C520E5A6
:1043300020E621062106292729072907210720E64B
:1043400020E621072107210721072107210721074F
:1043500021072128212821282128212821482148F6
:104360002969318939EA316818A5108518A52927E6
:1043700020C518C518C518C418C418C410A41084C2
:10438000108418A418C520E52106290631273127F5
:1043900031273127314739883988396831473147E2
:1043A000312731273127312731273127312731472D
:1043B00031473148396839883989314831273127BF
:1043C0002905290531053105394649C749C73966E7
:1043D000394628E528C428C4208428E5312728E662
:1043E0002906292729072927290731282948294863
:1043F000292729272107210720E620E620E620C5D6
:1044000018A4290628E420C428E439473967394725
:104410003969418A396A39683127312620C520C572
:1044200020A520C520C520C520C520C520C520E564
:104430002106210621062106290729072907210728
:10444000210721072107210721072127210721080B
:10445000212821282148214821482148214829692B
:10446000298939CA39EA294810A5108418C5212696
:1044700020E618C518C518C418C418C418C518C52E
:1044800018C518C518E518E520E520E629262927CE
:1044900029062926312631263988398841A941A99A
:1044A00041A931473127312731273127312731279A
:1044B00031273127314731473988398931683168A7
:1044C0003968290631063105394641864186394623
:1044D000392528C428C428C420A428E53127290761
:1044E00029272927292729272907290729272107B4
:1044F0002107210621062107210620E620C520A448
:1045000020C520E520E420E420E539873988396892
:10451000396931483127290628E628E620E520C5F3
:1045200020C520C520C520C520C520C520C520E543
:1045300020E6210621062106290729072907210748
:1045400021072107210721072107212821282128C8
:10455000212821282148214821282128212829698A
:10456000296931AA3189212710C510A510A518C5C0
:1045700018C510C510C510C410C410C410C410C490
:1045800010C418E5190520E520E620E621062906D5
:10459000290629062926312631263127314739882F
:1045A0003988396839683147314731273127312710
:1045B000312629063147312731673187318839A9BA
:1045C00049EA28E731063105312539453945416643
:1045D000394628C430E428C428A428E529272927F7
:1045E00029282927292729272907290729272107B2
:1045F000210720E621072107210720C618A520A4AE
:1046000018A518C418C420C420A4290629272907DE
:10461000290720C420C420C520C628E528E520C5D8
:1046200028E520C520C520C520C518C520E520E502
:1046300020E620E621062106210721272106210761
:104640002107210721072107210721072108212808
:104650002128212821282128214821482148214892
:10466000296929482127294818E610A510C510C432
:1046700010A410C410A410C410A418C510C510C4F0
:1046800010A418C5210521062106210628E628E6E2
:1046900029062906290631273126290629273147E7
:1046A00031473168398839883968314831273127AD
:1046B000290629062906290631273147316831891B
:1046C00041AA310730E63105310531253145314602
:1046D000394628A330E528C428C428E529272928F5
:1046E00029282927290729072907292729272927A9
:1046F000290721072907290720E620C518A520A595
:1047000018A4188418A420A420C420A420A520A59F
:1047100020A520C520C520C520C5290620C520C547
:1047200020C520C520C520C520A418C520E518C572
:1047300020E620E621062106210621072106210781
:104740002107210721072107210721072108212807
:1047500021282129194919281928194821482148AF
:10476000214921482147214718E610A510A510A589
:1047700010A410A410C410C510C418C518C518E59D
:1047800020E518E5210521062106210628E628E670
:104790002906312731273127312731273127312782
:1047A00031272927314739683968398939883127CC
:1047B00029062906290629063127292629272927F6
:1047C000314828C5390631053105310531253125F6
:1047D000312528A4392530E530E43106314829282F
:1047E0002928292729272907210729272927292790
:1047F00029072907210720E620A518A520A520A51F
:1048000018A4188420A520A420C420C420A520A575
:1048100020A520A520A520C520C520A518A4188462
:1048200020A420A420C520C520A418C418C518C5DC
:1048300020C620E620E621062106210621062106C3
:104840002106210720E720E720E72107210821088A
:10485000212821492129192819081908192721284F
:10486000212821482948212718E6108510A510A5E0
:1048700010A510A510C518C510C518E510E518E558
:1048800019052105210521262126210621062906B3
:104890002927292729273127292729262927292791
:1048A000292631272906312731273127314731473A
:1048B0003127290629062906290629262906290736
:1048C000290631053926310528C428E4290529049B
:1048D00028E428C44146410530E539473148294993
:1048E00029482927292729072106292721072107C0
:1048F00029072927210720C620C620C520C520C595
:1049000018A420A520C520C520C520C520C520C5C8
:1049100020A520A520A520A520A520A520A520A56F
:1049200020C520E520C520C520C418C520E520E508
:1049300020C620E620E620E620E6210620E620E646
:1049400020E6210720E720E720E72107210821288A
:10495000212929492129212819081907190720E7A0
:10496000212829482968294818E710A610A510A56C
:1049700018C510C510C510E518E618E610E618E6CB
:104980001906212621262126212621262926292607
:10499000292631473147294729272927290629066A
:1049A00029062927312631262906290631263127CD
:1049B00031273127290628E629062906290629064E
:1049C00030E541254126390530C428E428E429048E
:1049D00028C430A449674106390639473169294955
:1049E0002948292729072107210720E620E6210752
:1049F000292729072107290720A520A520A520C5AB
:104A000020C520A520A420C520C420C420C520C5C1
:104A100020A520C520C520C520A520A520C520A5EE
:104A200020C520C518C418C418A418C518C518C5B1
:104A300018C620C618C620E620E620E620E620E6B6
:104A400020E620E720E720E7210721072108212889
:104A5000292929492108210821082107210720E7C0
:104A60002107210731A93189210710A610A518C6F1
:104A700018C510C610E610E61906190610E618E665
:104A80001906214721472146212621262926294783
:104A90002927294731672947294729272906290630
:104AA000290629062906290629062906290629266E
:104AB000290631473127290628E62906290628E64E
:104AC00030C541255166414530C428E428E420E43E
:104AD00028C428A349675167412739273148294904
:104AE0002928210720E618C620E6210621072907E4
:104AF00029272107210620E618A520A520A520C5E5
:104B000020C520C520C520C520C420C420C520C57F
:104B100020C520C520A518C518C518C518C518C5B5
:104B200018C418C418C418C418C518C418A520C6B9
:104B300018C620E520C620C620E620C620E620E6CE
:104B400020E620E620E720E821082108210820E8C7
:104B5000210820E82108212821082108210821080E
:104B60002108212829682969212710A510A618C61F
:104B700018C618E618E618E618E618E61906190623
:104B8000190629472106296739E93188296721262D
:104B90003167210631672927292729062926290671
:104BA000290628E62906290629062906310631267E
:104BB000290629062906290729062905210620E6AE
:104BC000390661C85987494630A328E428E428C437
:104BD000208328A459E9724B51A9392831493169F8
:104BE0002148210720E620E6210621072127210769
:104BF000210720E720E718A518A518A518C520C586
:104C000020C520A518A420C418A418A418A418A46A
:104C1000188418A418A418A518C518C518C5108498
:104C200018A418A418A420E518C518C418C520E6AF
:104C300020C620E520C620C620C620C620C620E605
:104C400020E620E620E720E82108210821082108A5
:104C5000292921082128294921282108210821085A
:104C60002108212721272127212710A518C618E66A
:104C700018E618E618E618E618E618E61906190602
:104C80001907316839E931884A4B4A2A4A2A41E9E9
:104C90004209528B5AAC41C931473147314731271C
:104CA000310630E628E528E528E528E528E528E569
:104CB000290529062906290621062905210618A500
:104CC00039266A0961A8492530A328C428E428C4E4
:104CD000208328A46A2A8AEE6A4C416931492969ED
:104CE0002148210720E720E721072927212721271D
:104CF000210720C620C618A518A518A518C518C5CF
:104D000018C520C520A518A418A418A418841884B0
:104D1000188418A418A418A418A518C518C518A490
:104D200018A418A418A420E520E518C518C620E684
:104D300020E620E520E620E620E620E620E6210623
:104D4000210620E7210721082108212829282108F8
:104D50002108210821282929212921082128210881
:104D60002128212829482948210710A618C618C635
:104D700018E618E618E618E618E618E61906190601
:104D800019063188632E738FAD568C7294B38C7272
:104D90008C52AD769C9383D15A6B41E941E931261F
:104DA0003126310628E628E628E628E628E6290600
:104DB000290529052906290620E520E520E628E61B
:104DC00039267AAC6A2A4126288328C428C428A414
:104DD00020A428A4726B9B907AAD41683148294881
:104DE0002928290820E820E7290829282928212717
:104DF000292720C620C618A518A418C518C518C587
:104E000018C520C520C518A418A4188318A418A470
:104E10001884188418A418A418A418A418A518A4F1
:104E200018A418A418A420E620E618C520C620C699
:104E300020E62105210720E620E620E620E62106DF
:104E400020E62107210721072107212729282128DA
:104E500029282128212829492929292921292129C5
:104E60002128292829482948212810A618C618C50C
:104E700018C518C518E618E618E619061906192700
:104E80002968422A8410E71DF77EDEBBF79FEF5E9C
:104E9000EF3DEF5DDEBBD65AB5567BB07BB03967D0
:104EA0003967310628E628E528E520C528E528E504
:104EB00028E528E5290528E520E528E528E6310646
:104EC000416772AC726B38E5288430E428C428C48A
:104ED00028C430C5726C9B7082ED4968312829283E
:104EE00021282908210820E8292829282128210704
:104EF000210618A518A418A418A418C518C518C503
:104F000018C520C520C518A418A4188318831884B0
:104F100018841884188418841884188418841884B1
:104F200018A418A418C520E520E618C418C518C68A
:104F300020E620E521072106190621062106210782
:104F400020E72107210721072107212721272928D9
:104F500029282128292829492929292A292A292AA9
:104F6000294A294A29492929212810A610A510A52E
:104F700018C518C518E618E618E6190618E618E662
:104F800031A99CD3DEDBFFDFFF9EFFDFFFDFFFBF2A
:104F9000F7BEF7BEF79EFF7EFF7EEF1DA5155A8B6D
:104FA0003967394628E528C428C428C428E528E5F7
:104FB00028E428E528E528E528E528E628E530C5A1
:104FC000416772CD622B38E530C428C428E430E54F
:104FD00030E530E551A88AEE7A8B4147312829081F
:104FE000290820E721082107292829282107210746
:104FF000210618A418A418A418A418C418C418C505
:1050000018C520C520C520C418A4188318A3188368
:105010001884188518851884188420A520A520A533
:1050200018A418A418C5210620E518C418C518C569
:1050300020E620E521072106190621062107210780
:1050400020E7210721072107210721072107292818
:105050002928292829492949292A292B294B292B5B
:10506000294B296B294A294A212810A610A510A5E9
:1050700018C518C518E618E618E6190618E6190640
:1050800018E6738EF79EFFDFFFDFFFFFFF9EFFBE78
:10509000FFBEF79EFFBFFFDFFF9EFFBFE6FC943120
:1050A0005A8B394630E43105310530C43105392594
:1050B000310528E528E528E528C528E628E530E576
:1050C0003926624B38E638E630C428C43125392603
:1050D00030E530A451676A0A59A7412628E62928F5
:1050E00028E820E720E721072928210720E720E7F3
:1050F000210618A418A418A418A418A418C418C524
:1051000020C520C520C520C518A418A318A318833E
:10511000188418851885188420A420A520A420A50B
:1051200018C418C520C5210620E518C518C518C51E
:1051300018C520E620E620E620E621072107210702
:10514000210720E72107210721072107290829280E
:10515000292929282929294A314B314C314C316CD4
:10516000316B294A314B294A292918A610C510C587
:1051700010C518E618E618E61906190618E72107FB
:1051800021267BF0F77EFFBFFFBFFFBFFFBFFFBF42
:10519000FFBEFFBEFFBEFFBEFFBFFFDFFFBEF75D6E
:1051A000BD55520931453966394530E439054967FD
:1051B000412620E4210420E428C528C528E528C488
:1051C00038E53905390530C43925394649C841879C
:1051D000394659E95147490659A8392731472928FD
:1051E00028E720E720E720E72928290821072106CA
:1051F00020C518A410841084108418A518C518C5DB
:1052000020C520A520A520C520A5188418841884B1
:1052100020C583B17B9120C520A420A420A420A474
:1052200020C418A420E5290520C518C518C518C52F
:1052300018C520C520E620E620E620E72107210743
:10524000210720E720E7210721072107210821085E
:10525000210829282929294A316B39AD39CD39ADA1
:10526000318C316C398C292A292918A610C510E5F2
:1052700018E618E6190618E6210621072107212756
:1052800021269CF4FFBFFFBFFFBFFFBFFFBFFFBFD3
:10529000FFBEFFBEFFBEFFBFFFBFFFBFFFDFFFBE02
:1052A000B535C5978BF062AB62AB5A49520972CCE7
:1052B00049A829252105290528E528E528C430E540
:1052C00038E5412551A8496751C852097B0D732D16
:1052D000A4B39C315A4A72EC832E5A4A39C82947E2
:1052E000290720E720E720E72108290829072106C8
:1052F00018C518A418A4108418A418C518C520E54A
:1053000020C520A520A520C520C520A520A420A417
:10531000186383D28BD2292620C520E520C520C55D
:1053200020C420C520E520E520C518C518C518C52E
:1053300018C520E6210620E620E620E620E720E743
:10534000210720E720E720E7210720E720E720E7E3
:1053500020E8292829292929316A41ED420E41EE08
:1053600041CD41CD39CD316B210818C618C510E5A6
:1053700018E618E618E619061906212729482147D4
:1053800031C8C618F7BEFFBFFFBFFFBFFFBFFFBFDB
:10539000FFBFFFBFFFBFFFBFFFBFFFDFFFBEFFBFFE
:1053A000FF9EFF7EEF1CCE39F75DEF1CEEFCEEFC9E
:1053B000AD14AD147BAF62EC522949E862AB5209DF
:1053C00049C872EC836EA472DE5AF71CF75DF75D74
:1053D000EF3DE6FCDEFCDEFBE69BA4B48BF1528BDA
:1053E00041C9292718C620E721082108292820E6D5
:1053F00018C518A518A420A520C520C520C520C5FE
:1054000020E620C520A520A520A520C520A520A4F4
:1054100020A428E620C620C518C520C520C520C563
:1054200020C520E528E620C520C518A518C518C543
:1054300018C520E620E620E620E620E620E720E763
:105440002108210821072107210721072108210818
:105450002108292829292929294A39CC41ED41ED5A
:1054600041CC39CC41EC316A210818A610C510E5B1
:1054700010E618E618E6190621062127294731A863
:1054800052ACF7BEFFDEFFBFFFBFFFBFFFBFFFBFD6
:10549000FFDFFFDFFFDFFFBFFFBFFFBFFFBFFFDF9C
:1054A000FFDFFFDFFFBFFFBFF77DFFBEFFBEFFBE19
:1054B000FFBEFF9EE6DBF75DC5F8CE18C5D7B57613
:1054C000B575BDB6EEFCD679F79EF79EFFBFF7BF68
:1054D000F7BEF7BEF7BEF7BFFF7EEF3DF75EDEBB60
:1054E000B5767BD052AC31883168318A290718A54E
:1054F00018C518A518A418A520A520A520C528E61C
:1055000028E620C520A520A520A520C520C520C4AB
:1055100020C520A520C618C520C518C520C518C59A
:1055200020C520E620E620C520A518A518A518C589
:1055300018C520E618C520E620E620E620E720E78B
:105540002908292829282928210821072108210894
:1055500021082928292929292929316A316A318BE9
:10556000318B316A316A2949210818A610C510C546
:1055700010C518E618E61906210629472968298862
:105580009D15FFFFEF5DFFDFFFBFFFDFFFBFFFDF09
:10559000FFDFFFDFFFDFFFBFFFBFFFBFFFBFFFDF9B
:1055A000FFDFFFDFFFBFFFBEFFDFFFFFFFDFFFDF2C
:1055B000FFFFFF9EFFBFEF1CEF5DF79EFFFFEF3C7D
:1055C000E71BEF5CFFBEF7BEF79EF7BEF7BEF7BE68
:1055D000F7BEFFBFFF9EF79EF79EF77EFFDFFFBF80
:1055E000F79EDEDB84313187420A4A2C294818C5F0
:1055F00018A518A418A418A420A520A520C528E63D
:1056000028E620C520A520A520A520C520C520C4AA
:1056100020A420A518A520C518A520C620C520C6F1
:1056200020C628E620E620C518A518A518C518C567
:1056300018E518E518E520E620E620E620E720E753
:10564000290829282928292821282128212829280A
:1056500029282928292829282949316A316A294AEB
:105660002929212929292929210818C510C510C54A
:1056700010C510E518E518E62106292721276B6FCC
:10568000DEFDFFDFFFDFFFDFFFDFFFDFFFDFFFDF2D
:10569000FFBFFFBFFFBFFFBFFFBFFFDFFFDFFFDFBA
:1056A000FFDFFFDFFFDFFFDFFFDFFFDFFFDFFFDF0A
:1056B000FFDFFFDFFFBFFFDFFFDFFFDFFFDFFFDF1A
:1056C000FFBFFFDFF7BEF7BEF7BEF7BEF7BEF7BFFF
:1056D000F7BEF7BFF7BFF7BFF7BFF7BFF7BFF7BE1C
:1056E000F79EF75DFFBFEF3EC5D97B9041EA20E60C
:1056F00018A418C418C418A418A520C520C520E6ED
:1057000020E520C520C520C520C520C520C5290607
:1057100039683148312831483148314831483128D9
:10572000292831282927290628E618A518C518E5AB
:1057300018E518E518E520E620E620E620E720E752
:1057400029082928292829282928292829282928F1
:1057500029282928292829492949316A2949292913
:105760002109290929292929210818A510A510C4CA
:1057700010C510C618E61906292731684A2AA5154A
:10578000F77FF79FFFDFFFDFFFDFFFDFFFDFFFDFD9
:10579000FFBFFFBFFFBFFFBFFFBFFFDFFFDFFFDFB9
:1057A000FFDFFFDFFFDFFFDFFFDFFFDFFFDFFFDF09
:1057B000FFBFFFBFFFBFFFBFFFBFFFDFFFDFFFDF99
:1057C000FFDFFFDFF7BEFFDFF7BEF7BEF7BEF7BFB5
:1057D000F7BFF7BFF7BFF7BFF7BEF7BEF7BEF7BF1C
:1057E000FFBFF79DFFBEFF9EF77EDE9B945239C838
:1057F00018E418C518C520A518A520C520C520E6A1
:1058000020E520A420A420A520A520A520A52907C7
:1058100041CA3969396A39693969398939693969EE
:105820003969316839683147312718A518A518E555
:1058300018E518E620E620E620E620E720E720E746
:1058400021082928292829282928294829492928B7
:10585000292829282928294929492949318A316AA9
:105860002108290829292929210810A510C518E58A
:1058700010C518E618C620E6210662EE9C93D67B7A
:10588000FFBFFFBFFFDFFFBFFFDFFFDFFFDFFFDF88
:10589000FFBFFFBFFFBFFFBFFFBFFFDFFFDFFFDFB8
:1058A000FFDFFFDFFFDFFFDFFFDFFFDFFFDFFFDF08
:1058B000FFDFFFDFFFDFFFDFFFDFFFDFFFDFFFBF18
:1058C000FFBFFFDFFFDFFFDFFFDFFFDFFFDFF7BF30
:1058D000F7BFF7BEF79EF79EF79EF79EF79EF7BEBF
:1058E000FFBFFFDEFFDEFFDEFF9EF79EDEDB83F005
:1058F00031A718C518C520C520C520C520C520E67C
:1059000028E620C5290731483128312829072927C9
:1059100031482928290829082908290728E720E7E4
:1059200028E7292720C620C518A518A518A518E519
:1059300018E518E620E620E720E720E720E720E743
:10594000210821082928292829482949294929489D
:1059500029492948294829492949316A39CB39AA8D
:105960002928292829282928210818A510C518E53B
:1059700010E518C618E621065ACDB556EF1DFF9F53
:10598000FFDFFFBFFFDFFFBFFFDFFFDFFFDFFFDF67
:10599000FFBFFFBFFFBFFFBFFFBFFFDFFFDFFFDFB7
:1059A000FFDFFFDFFFDFFFDFFFDFFFDFFFDFFFDF07
:1059B000FFDFFFDFFFDFFFDFFFDFFFDFFFBFFFBF37
:1059C000FFBFFFDFFFDFFFDFF7BEF7BEF7BEF7BFAA
:1059D000F7BFF7BEF79EF79EF79EF79EF79EF79EDE
:1059E000F79EFF9EFFBEFFBEFF9EFF9EE6FB9CB2A2
:1059F0004229210620E520C520C520C520C520E676
:105A000028E628E63147314831483948314831489D
:105A1000312829272927292729072927290720E687
:105A200020E6290720A518A518A518A518A518E58A
:105A300018C518E520E620E720E7210820E820E740
:105A400020E720E72108210821082128292821080A
:105A500021082108210829282929292939AB41CBE6
:105A60003149312929292928292818A510C51905BE
:105A700018E6422B6B4E94939472EF5DFF5EFF9F8E
:105A8000FFBFFFBFF7DFFFBFFFDFFFDFFFDFFFDF8E
:105A9000FFBFFFBFFFBFFFBFFFBFFFBFFFBFFFBF16
:105AA000FFBFFFBFFFBFFFBFFFBFFFBFFFBFFFBF06
:105AB000FFBFFFBFFFBFFFBFFFBFFFBFFFBEFFBFF7
:105AC000FFBFFFDFFFDFFFDFF7BEF7BEF7BEFFDF81
:105AD000F7BFF7BEF79EEF7DEF7DEF5DEF3DEF7D0A
